{
  "contractName": "Marketplace",
  "abi": [
    {
      "inputs": [
        {
          "name": "_admin",
          "type": "address"
        }
      ],
      "payable": false,
      "stateMutability": "nonpayable",
      "type": "constructor"
    },
    {
      "anonymous": false,
      "inputs": [
        {
          "indexed": false,
          "name": "admin",
          "type": "address"
        },
        {
          "indexed": false,
          "name": "flag",
          "type": "bool"
        }
      ],
      "name": "EmergencySet",
      "type": "event"
    },
    {
      "anonymous": false,
      "inputs": [
        {
          "indexed": false,
          "name": "seller",
          "type": "address"
        },
        {
          "indexed": false,
          "name": "listingId",
          "type": "uint256"
        },
        {
          "indexed": false,
          "name": "deposit",
          "type": "uint256"
        },
        {
          "indexed": false,
          "name": "city",
          "type": "string"
        },
        {
          "indexed": false,
          "name": "title",
          "type": "string"
        },
        {
          "indexed": false,
          "name": "descHash",
          "type": "string"
        },
        {
          "indexed": false,
          "name": "price",
          "type": "uint256"
        },
        {
          "indexed": false,
          "name": "imageHash",
          "type": "string"
        },
        {
          "indexed": false,
          "name": "status",
          "type": "uint8"
        }
      ],
      "name": "ListingCreated",
      "type": "event"
    },
    {
      "anonymous": false,
      "inputs": [
        {
          "indexed": false,
          "name": "seller",
          "type": "address"
        },
        {
          "indexed": false,
          "name": "listingId",
          "type": "uint256"
        }
      ],
      "name": "ListingCancelled",
      "type": "event"
    },
    {
      "anonymous": false,
      "inputs": [
        {
          "indexed": false,
          "name": "seller",
          "type": "address"
        },
        {
          "indexed": false,
          "name": "listingId",
          "type": "uint256"
        },
        {
          "indexed": false,
          "name": "extraDeposit",
          "type": "uint256"
        }
      ],
      "name": "ListingDepositUpdated",
      "type": "event"
    },
    {
      "anonymous": false,
      "inputs": [
        {
          "indexed": false,
          "name": "buyer",
          "type": "address"
        },
        {
          "indexed": false,
          "name": "listingId",
          "type": "uint256"
        },
        {
          "indexed": false,
          "name": "offerId",
          "type": "uint256"
        },
        {
          "indexed": false,
          "name": "value",
          "type": "uint256"
        },
        {
          "indexed": false,
          "name": "arbitrator",
          "type": "address"
        },
        {
          "indexed": false,
          "name": "checkIn",
          "type": "uint256"
        },
        {
          "indexed": false,
          "name": "checkOut",
          "type": "uint256"
        },
        {
          "indexed": false,
          "name": "nights",
          "type": "uint256"
        }
      ],
      "name": "OfferCreated",
      "type": "event"
    },
    {
      "anonymous": false,
      "inputs": [
        {
          "indexed": false,
          "name": "buyer",
          "type": "address"
        },
        {
          "indexed": false,
          "name": "listingId",
          "type": "uint256"
        },
        {
          "indexed": false,
          "name": "offerId",
          "type": "uint256"
        },
        {
          "indexed": false,
          "name": "extraValue",
          "type": "uint256"
        }
      ],
      "name": "OfferValueUpdated",
      "type": "event"
    },
    {
      "anonymous": false,
      "inputs": [
        {
          "indexed": false,
          "name": "buyer",
          "type": "address"
        },
        {
          "indexed": false,
          "name": "listingId",
          "type": "uint256"
        },
        {
          "indexed": false,
          "name": "offerId",
          "type": "uint256"
        },
        {
          "indexed": false,
          "name": "dataHash",
          "type": "bytes32"
        }
      ],
      "name": "OfferRefundUpdated",
      "type": "event"
    },
    {
      "anonymous": false,
      "inputs": [
        {
          "indexed": false,
          "name": "seller",
          "type": "address"
        },
        {
          "indexed": false,
          "name": "listingId",
          "type": "uint256"
        },
        {
          "indexed": false,
          "name": "offerId",
          "type": "uint256"
        },
        {
          "indexed": false,
          "name": "finalizes",
          "type": "uint256"
        }
      ],
      "name": "OfferAccepted",
      "type": "event"
    },
    {
      "anonymous": false,
      "inputs": [
        {
          "indexed": false,
          "name": "who",
          "type": "address"
        },
        {
          "indexed": false,
          "name": "listingId",
          "type": "uint256"
        },
        {
          "indexed": false,
          "name": "offerId",
          "type": "uint256"
        }
      ],
      "name": "OfferFinalized",
      "type": "event"
    },
    {
      "anonymous": false,
      "inputs": [
        {
          "indexed": false,
          "name": "who",
          "type": "address"
        },
        {
          "indexed": false,
          "name": "listingId",
          "type": "uint256"
        },
        {
          "indexed": false,
          "name": "offerId",
          "type": "uint256"
        }
      ],
      "name": "OfferCancelled",
      "type": "event"
    },
    {
      "anonymous": false,
      "inputs": [
        {
          "indexed": false,
          "name": "who",
          "type": "address"
        },
        {
          "indexed": false,
          "name": "listingId",
          "type": "uint256"
        },
        {
          "indexed": false,
          "name": "offerId",
          "type": "uint256"
        }
      ],
      "name": "OfferDisputed",
      "type": "event"
    },
    {
      "anonymous": false,
      "inputs": [
        {
          "indexed": false,
          "name": "arbitrator",
          "type": "address"
        },
        {
          "indexed": false,
          "name": "listingId",
          "type": "uint256"
        },
        {
          "indexed": false,
          "name": "offerId",
          "type": "uint256"
        },
        {
          "indexed": false,
          "name": "refund",
          "type": "uint256"
        }
      ],
      "name": "OfferArbitrated",
      "type": "event"
    },
    {
      "anonymous": false,
      "inputs": [
        {
          "indexed": false,
          "name": "who",
          "type": "address"
        },
        {
          "indexed": false,
          "name": "sellerChange",
          "type": "int256"
        },
        {
          "indexed": false,
          "name": "buyerChange",
          "type": "int256"
        }
      ],
      "name": "CreditUpdated",
      "type": "event"
    },
    {
      "constant": false,
      "inputs": [
        {
          "name": "flag",
          "type": "bool"
        }
      ],
      "name": "setEmergency",
      "outputs": [],
      "payable": false,
      "stateMutability": "nonpayable",
      "type": "function"
    },
    {
      "constant": true,
      "inputs": [],
      "name": "getEmergency",
      "outputs": [
        {
          "name": "",
          "type": "bool"
        }
      ],
      "payable": false,
      "stateMutability": "view",
      "type": "function"
    },
    {
      "constant": false,
      "inputs": [
        {
          "name": "deposit",
          "type": "uint256"
        },
        {
          "name": "city",
          "type": "string"
        },
        {
          "name": "title",
          "type": "string"
        },
        {
          "name": "descHash",
          "type": "string"
        },
        {
          "name": "price",
          "type": "uint256"
        },
        {
          "name": "imageHash",
          "type": "string"
        }
      ],
      "name": "createListing",
      "outputs": [],
      "payable": true,
      "stateMutability": "payable",
      "type": "function"
    },
    {
      "constant": false,
      "inputs": [
        {
          "name": "listingId",
          "type": "uint256"
        }
      ],
      "name": "cancelListing",
      "outputs": [],
      "payable": false,
      "stateMutability": "nonpayable",
      "type": "function"
    },
    {
      "constant": false,
      "inputs": [
        {
          "name": "listingId",
          "type": "uint256"
        },
        {
          "name": "extraDeposit",
          "type": "uint256"
        }
      ],
      "name": "updateListingDeposit",
      "outputs": [],
      "payable": true,
      "stateMutability": "payable",
      "type": "function"
    },
    {
      "constant": false,
      "inputs": [
        {
          "name": "listingId",
          "type": "uint256"
        },
        {
          "name": "value",
          "type": "uint256"
        },
        {
          "name": "checkIn",
          "type": "uint256"
        },
        {
          "name": "nights",
          "type": "uint256"
        },
        {
          "name": "arbitrator",
          "type": "address"
        }
      ],
      "name": "makeOffer",
      "outputs": [],
      "payable": true,
      "stateMutability": "payable",
      "type": "function"
    },
    {
      "constant": false,
      "inputs": [
        {
          "name": "listingId",
          "type": "uint256"
        },
        {
          "name": "offerId",
          "type": "uint256"
        }
      ],
      "name": "acceptOffer",
      "outputs": [],
      "payable": false,
      "stateMutability": "nonpayable",
      "type": "function"
    },
    {
      "constant": false,
      "inputs": [
        {
          "name": "listingId",
          "type": "uint256"
        },
        {
          "name": "offerId",
          "type": "uint256"
        }
      ],
      "name": "finalizeOffer",
      "outputs": [],
      "payable": false,
      "stateMutability": "nonpayable",
      "type": "function"
    },
    {
      "constant": false,
      "inputs": [
        {
          "name": "listingId",
          "type": "uint256"
        },
        {
          "name": "offerId",
          "type": "uint256"
        }
      ],
      "name": "cancelOffer",
      "outputs": [],
      "payable": false,
      "stateMutability": "nonpayable",
      "type": "function"
    },
    {
      "constant": false,
      "inputs": [
        {
          "name": "listingId",
          "type": "uint256"
        },
        {
          "name": "offerId",
          "type": "uint256"
        },
        {
          "name": "extraValue",
          "type": "uint256"
        }
      ],
      "name": "updateOfferValue",
      "outputs": [],
      "payable": true,
      "stateMutability": "payable",
      "type": "function"
    },
    {
      "constant": false,
      "inputs": [
        {
          "name": "listingId",
          "type": "uint256"
        },
        {
          "name": "offerId",
          "type": "uint256"
        },
        {
          "name": "refund",
          "type": "uint256"
        },
        {
          "name": "dataHash",
          "type": "bytes32"
        }
      ],
      "name": "updateOfferRefund",
      "outputs": [],
      "payable": false,
      "stateMutability": "nonpayable",
      "type": "function"
    },
    {
      "constant": false,
      "inputs": [
        {
          "name": "listingId",
          "type": "uint256"
        },
        {
          "name": "offerId",
          "type": "uint256"
        }
      ],
      "name": "disputeOffer",
      "outputs": [],
      "payable": false,
      "stateMutability": "nonpayable",
      "type": "function"
    },
    {
      "constant": false,
      "inputs": [
        {
          "name": "listingId",
          "type": "uint256"
        },
        {
          "name": "offerId",
          "type": "uint256"
        },
        {
          "name": "refund",
          "type": "uint256"
        }
      ],
      "name": "arbitrateOffer",
      "outputs": [],
      "payable": false,
      "stateMutability": "nonpayable",
      "type": "function"
    },
    {
      "constant": true,
      "inputs": [],
      "name": "totalListings",
      "outputs": [
        {
          "name": "",
          "type": "uint256"
        }
      ],
      "payable": false,
      "stateMutability": "view",
      "type": "function"
    },
    {
      "constant": true,
      "inputs": [
        {
          "name": "listingId",
          "type": "uint256"
        }
      ],
      "name": "totalOffers",
      "outputs": [
        {
          "name": "",
          "type": "uint256"
        }
      ],
      "payable": false,
      "stateMutability": "view",
      "type": "function"
    },
    {
      "constant": true,
      "inputs": [
        {
          "name": "listingId",
          "type": "uint256"
        }
      ],
      "name": "getListing",
      "outputs": [
        {
          "name": "",
          "type": "address"
        },
        {
          "name": "",
          "type": "uint256"
        },
        {
          "name": "",
          "type": "uint8"
        },
        {
          "name": "",
          "type": "string"
        },
        {
          "name": "",
          "type": "string"
        },
        {
          "name": "",
          "type": "string"
        },
        {
          "name": "",
          "type": "uint256"
        },
        {
          "name": "",
          "type": "string"
        }
      ],
      "payable": false,
      "stateMutability": "view",
      "type": "function"
    },
    {
      "constant": true,
      "inputs": [
        {
          "name": "listingId",
          "type": "uint256"
        },
        {
          "name": "offerId",
          "type": "uint256"
        }
      ],
      "name": "getOffer",
      "outputs": [
        {
          "name": "",
          "type": "address"
        },
        {
          "name": "",
          "type": "uint256"
        },
        {
          "name": "",
          "type": "uint256"
        },
        {
          "name": "",
          "type": "uint256"
        },
        {
          "name": "",
          "type": "address"
        },
        {
          "name": "",
          "type": "uint8"
        },
        {
          "name": "",
          "type": "uint256"
        },
        {
          "name": "",
          "type": "uint256"
        }
      ],
      "payable": false,
      "stateMutability": "view",
      "type": "function"
    },
    {
      "constant": false,
      "inputs": [
        {
          "name": "user",
          "type": "address"
        },
        {
          "name": "sellerChange",
          "type": "int256"
        },
        {
          "name": "buyerChange",
          "type": "int256"
        }
      ],
      "name": "updateCredit",
      "outputs": [],
      "payable": false,
      "stateMutability": "nonpayable",
      "type": "function"
    },
    {
      "constant": true,
      "inputs": [
        {
          "name": "user",
          "type": "address"
        }
      ],
      "name": "getCredit",
      "outputs": [
        {
          "name": "",
          "type": "int256"
        },
        {
          "name": "",
          "type": "int256"
        }
      ],
      "payable": false,
      "stateMutability": "view",
      "type": "function"
    },
    {
      "constant": false,
      "inputs": [
        {
          "name": "_hashes",
          "type": "bytes32[]"
        }
      ],
      "name": "setHashes",
      "outputs": [],
      "payable": false,
      "stateMutability": "nonpayable",
      "type": "function"
    },
    {
      "constant": true,
      "inputs": [],
      "name": "getHashes",
      "outputs": [
        {
          "name": "",
          "type": "bytes32[]"
        }
      ],
      "payable": false,
      "stateMutability": "view",
      "type": "function"
    }
  ],
  "bytecode": "0x60806040526000600360146101000a81548160ff02191690831515021790555034801561002b57600080fd5b50604051602080613b398339810180604052602081101561004b57600080fd5b810190808051906020019092919050505080600360006101000a81548173ffffffffffffffffffffffffffffffffffffffff021916908373ffffffffffffffffffffffffffffffffffffffff16021790555050613a8c806100ad6000396000f3fe60806040526004361061012a5760003560e01c806391f1f310116100ab578063d45557cc1161006f578063d45557cc14610836578063dd0cc39a1461087b578063eac06fa1146108c0578063ebaa97f714610925578063ec7042c7146109ea578063f6ed101914610a225761012a565b806391f1f310146106f257806392250bdb14610741578063b95035fa14610770578063bf2218da146107b2578063c78b616c1461080b5761012a565b80634245d48e116100f25780634245d48e1461052457806357344e6f146105905780635d6bfd67146105fc57806381257bd51461066857806389f80531146106ad5761012a565b80630501d5561461012f5780630e808d6f1461016c578063107a274a146101bb578063305a67a8146104015780633cd0cd671461043c575b600080fd5b34801561013b57600080fd5b5061016a6004803603602081101561015257600080fd5b81019080803515159060200190929190505050610cb6565b005b34801561017857600080fd5b506101b96004803603606081101561018f57600080fd5b81019080803590602001909291908035906020019092919080359060200190929190505050610d9c565b005b3480156101c757600080fd5b506101f4600480360360208110156101de57600080fd5b81019080803590602001909291905050506110f2565b604051808973ffffffffffffffffffffffffffffffffffffffff1673ffffffffffffffffffffffffffffffffffffffff1681526020018881526020018760ff1660ff1681526020018060200180602001806020018681526020018060200185810385528a818151815260200191508051906020019080838360005b8381101561028a57808201518184015260208101905061026f565b50505050905090810190601f1680156102b75780820380516001836020036101000a031916815260200191505b50858103845289818151815260200191508051906020019080838360005b838110156102f05780820151818401526020810190506102d5565b50505050905090810190601f16801561031d5780820380516001836020036101000a031916815260200191505b50858103835288818151815260200191508051906020019080838360005b8381101561035657808201518184015260208101905061033b565b50505050905090810190601f1680156103835780820380516001836020036101000a031916815260200191505b50858103825286818151815260200191508051906020019080838360005b838110156103bc5780820151818401526020810190506103a1565b50505050905090810190601f1680156103e95780820380516001836020036101000a031916815260200191505b509c5050505050505050505050505060405180910390f35b34801561040d57600080fd5b5061043a6004803603602081101561042457600080fd5b81019080803590602001909291905050506113fe565b005b34801561044857600080fd5b5061047f6004803603604081101561045f57600080fd5b810190808035906020019092919080359060200190929190505050611603565b604051808973ffffffffffffffffffffffffffffffffffffffff1673ffffffffffffffffffffffffffffffffffffffff1681526020018881526020018781526020018681526020018573ffffffffffffffffffffffffffffffffffffffff1673ffffffffffffffffffffffffffffffffffffffff1681526020018460ff1660ff1681526020018381526020018281526020019850505050505050505060405180910390f35b34801561053057600080fd5b506105396116d5565b6040518080602001828103825283818151815260200191508051906020019060200280838360005b8381101561057c578082015181840152602081019050610561565b505050509050019250505060405180910390f35b34801561059c57600080fd5b506105df600480360360208110156105b357600080fd5b81019080803573ffffffffffffffffffffffffffffffffffffffff16906020019092919050505061172d565b604051808381526020018281526020019250505060405180910390f35b610666600480360360a081101561061257600080fd5b8101908080359060200190929190803590602001909291908035906020019092919080359060200190929190803573ffffffffffffffffffffffffffffffffffffffff169060200190929190505050611787565b005b34801561067457600080fd5b506106ab6004803603604081101561068b57600080fd5b810190808035906020019092919080359060200190929190505050611ac8565b005b3480156106b957600080fd5b506106f0600480360360408110156106d057600080fd5b810190808035906020019092919080359060200190929190505050611d1d565b005b3480156106fe57600080fd5b5061072b6004803603602081101561071557600080fd5b810190808035906020019092919050505061221c565b6040518082815260200191505060405180910390f35b34801561074d57600080fd5b5061075661223c565b604051808215151515815260200191505060405180910390f35b6107b06004803603606081101561078657600080fd5b81019080803590602001909291908035906020019092919080359060200190929190505050612253565b005b3480156107be57600080fd5b50610809600480360360808110156107d557600080fd5b8101908080359060200190929190803590602001909291908035906020019092919080359060200190929190505050612516565b005b34801561081757600080fd5b50610820612705565b6040518082815260200191505060405180910390f35b34801561084257600080fd5b506108796004803603604081101561085957600080fd5b810190808035906020019092919080359060200190929190505050612711565b005b34801561088757600080fd5b506108be6004803603604081101561089e57600080fd5b810190808035906020019092919080359060200190929190505050612b28565b005b3480156108cc57600080fd5b50610923600480360360608110156108e357600080fd5b81019080803573ffffffffffffffffffffffffffffffffffffffff1690602001909291908035906020019092919080359060200190929190505050612e12565b005b34801561093157600080fd5b506109e86004803603602081101561094857600080fd5b810190808035906020019064010000000081111561096557600080fd5b82018360208201111561097757600080fd5b8035906020019184602083028401116401000000008311171561099957600080fd5b919080806020026020016040519081016040528093929190818152602001838360200280828437600081840152601f19601f820116905080830192505050505050509192919290505050612f84565b005b610a2060048036036040811015610a0057600080fd5b810190808035906020019092919080359060200190929190505050612f9e565b005b610cb4600480360360c0811015610a3857600080fd5b810190808035906020019092919080359060200190640100000000811115610a5f57600080fd5b820183602082011115610a7157600080fd5b80359060200191846001830284011164010000000083111715610a9357600080fd5b91908080601f016020809104026020016040519081016040528093929190818152602001838380828437600081840152601f19601f82011690508083019250505050505050919291929080359060200190640100000000811115610af657600080fd5b820183602082011115610b0857600080fd5b80359060200191846001830284011164010000000083111715610b2a57600080fd5b91908080601f016020809104026020016040519081016040528093929190818152602001838380828437600081840152601f19601f82011690508083019250505050505050919291929080359060200190640100000000811115610b8d57600080fd5b820183602082011115610b9f57600080fd5b80359060200191846001830284011164010000000083111715610bc157600080fd5b91908080601f016020809104026020016040519081016040528093929190818152602001838380828437600081840152601f19601f8201169050808301925050505050505091929192908035906020019092919080359060200190640100000000811115610c2e57600080fd5b820183602082011115610c4057600080fd5b80359060200191846001830284011164010000000083111715610c6257600080fd5b91908080601f016020809104026020016040519081016040528093929190818152602001838380828437600081840152601f19601f82011690508083019250505050505050919291929050505061319f565b005b600360009054906101000a900473ffffffffffffffffffffffffffffffffffffffff1673ffffffffffffffffffffffffffffffffffffffff163373ffffffffffffffffffffffffffffffffffffffff1614610d1057600080fd5b80600360146101000a81548160ff0219169083151502179055507fec1e0740cfc427a3c120e846d09d3c28d447a8c5bbec4894f5e0b4adcf3652143382604051808373ffffffffffffffffffffffffffffffffffffffff1673ffffffffffffffffffffffffffffffffffffffff168152602001821515151581526020019250505060405180910390a150565b6000808481548110610daa57fe5b906000526020600020906008020190506000600160008681526020019081526020016000208481548110610dda57fe5b906000526020600020906008020190508060040160009054906101000a900473ffffffffffffffffffffffffffffffffffffffff1673ffffffffffffffffffffffffffffffffffffffff163373ffffffffffffffffffffffffffffffffffffffff1614610e92576040517f08c379a00000000000000000000000000000000000000000000000000000000081526004018080602001828103825260268152602001806138dd6026913960400191505060405180910390fd5b60038160040160149054906101000a900460ff1660ff1614610eff576040517f08c379a00000000000000000000000000000000000000000000000000000000081526004018080602001828103825260258152602001806139f06025913960400191505060405180910390fd5b8060010154831115610f5c576040517f08c379a0000000000000000000000000000000000000000000000000000000008152600401808060200182810382526025815260200180613a156025913960400191505060405180910390fd5b60008382600101540390506000841115610fdc578160000160009054906101000a900473ffffffffffffffffffffffffffffffffffffffff1673ffffffffffffffffffffffffffffffffffffffff166108fc859081150290604051600060405180830381858888f19350505050158015610fda573d6000803e3d6000fd5b505b6000811115611051578260000160009054906101000a900473ffffffffffffffffffffffffffffffffffffffff1673ffffffffffffffffffffffffffffffffffffffff166108fc829081150290604051600060405180830381858888f1935050505015801561104f573d6000803e3d6000fd5b505b60058260040160146101000a81548160ff021916908360ff1602179055507f3f99b0cd4818c886720a5c412b2716b5de5ccb133771da5840eedee98e69601533878787604051808573ffffffffffffffffffffffffffffffffffffffff1673ffffffffffffffffffffffffffffffffffffffff16815260200184815260200183815260200182815260200194505050505060405180910390a1505050505050565b60008060006060806060600060606000808a8154811061110e57fe5b906000526020600020906008020190508060000160009054906101000a900473ffffffffffffffffffffffffffffffffffffffff1681600101548260020160009054906101000a900460ff16836003018460040185600501866006015487600701879750848054600181600116156101000203166002900480601f0160208091040260200160405190810160405280929190818152602001828054600181600116156101000203166002900480156112075780601f106111dc57610100808354040283529160200191611207565b820191906000526020600020905b8154815290600101906020018083116111ea57829003601f168201915b50505050509450838054600181600116156101000203166002900480601f0160208091040260200160405190810160405280929190818152602001828054600181600116156101000203166002900480156112a35780601f10611278576101008083540402835291602001916112a3565b820191906000526020600020905b81548152906001019060200180831161128657829003601f168201915b50505050509350828054600181600116156101000203166002900480601f01602080910402602001604051908101604052809291908181526020018280546001816001161561010002031660029004801561133f5780601f106113145761010080835404028352916020019161133f565b820191906000526020600020905b81548152906001019060200180831161132257829003601f168201915b50505050509250808054600181600116156101000203166002900480601f0160208091040260200160405190810160405280929190818152602001828054600181600116156101000203166002900480156113db5780601f106113b0576101008083540402835291602001916113db565b820191906000526020600020905b8154815290600101906020018083116113be57829003601f168201915b505050505090509850985098509850985098509850985050919395975091939597565b600080828154811061140c57fe5b906000526020600020906008020190508060000160009054906101000a900473ffffffffffffffffffffffffffffffffffffffff1673ffffffffffffffffffffffffffffffffffffffff163373ffffffffffffffffffffffffffffffffffffffff16146114c4576040517f08c379a00000000000000000000000000000000000000000000000000000000081526004018080602001828103825260228152602001806139506022913960400191505060405180910390fd5b8060000160009054906101000a900473ffffffffffffffffffffffffffffffffffffffff1673ffffffffffffffffffffffffffffffffffffffff166108fc82600101549081150290604051600060405180830381858888f19350505050611576576040517f08c379a000000000000000000000000000000000000000000000000000000000815260040180806020018281038252602181526020018061388b6021913960400191505060405180910390fd5b60098160020160006101000a81548160ff021916908360ff1602179055507f93ec4766fcd2d9dfdceab8f2e13ba0d9d826645cf03167fdb92b3b7359b5248c3383604051808373ffffffffffffffffffffffffffffffffffffffff1673ffffffffffffffffffffffffffffffffffffffff1681526020018281526020019250505060405180910390a15050565b6000806000806000806000806000600160008c81526020019081526020016000208a8154811061162f57fe5b906000526020600020906008020190508060000160009054906101000a900473ffffffffffffffffffffffffffffffffffffffff168160010154826002015483600301548460040160009054906101000a900473ffffffffffffffffffffffffffffffffffffffff168560040160149054906101000a900460ff168660050154876006015487975098509850985098509850985098509850509295985092959890939650565b6060600480548060200260200160405190810160405280929190818152602001828054801561172357602002820191906000526020600020905b81548152602001906001019080831161170f575b5050505050905090565b6000806000600260008573ffffffffffffffffffffffffffffffffffffffff1673ffffffffffffffffffffffffffffffffffffffff1681526020019081526020016000209050806000015481600101549250925050915091565b600080868154811061179557fe5b906000526020600020906008020190506000341161181b576040517f08c379a00000000000000000000000000000000000000000000000000000000081526004018080602001828103825260198152602001807f4e6f20455448207061696420666f7220746865206f666665720000000000000081525060200191505060405180910390fd5b60003390506000603c8060188702020286019050600080905061183c613578565b6040518061012001604052808573ffffffffffffffffffffffffffffffffffffffff1681526020018a8152602001838152602001600081526020018773ffffffffffffffffffffffffffffffffffffffff168152602001600160ff168152602001898152602001848152602001888152509050600160008b8152602001908152602001600020819080600181540180825580915050906001820390600052602060002090600802016000909192909190915060008201518160000160006101000a81548173ffffffffffffffffffffffffffffffffffffffff021916908373ffffffffffffffffffffffffffffffffffffffff16021790555060208201518160010155604082015181600201556060820151816003015560808201518160040160006101000a81548173ffffffffffffffffffffffffffffffffffffffff021916908373ffffffffffffffffffffffffffffffffffffffff16021790555060a08201518160040160146101000a81548160ff021916908360ff16021790555060c0820151816005015560e0820151816006015561010082015181600701555050507f2fd213e3c69ccc2cf2a86574adc3bde2603d54509d928bfca2f710576f415d92848b60018060008f815260200190815260200160002080549050038c8a8d898e604051808973ffffffffffffffffffffffffffffffffffffffff1673ffffffffffffffffffffffffffffffffffffffff1681526020018881526020018781526020018681526020018573ffffffffffffffffffffffffffffffffffffffff1673ffffffffffffffffffffffffffffffffffffffff1681526020018481526020018381526020018281526020019850505050505050505060405180910390a150505050505050505050565b6000808381548110611ad657fe5b906000526020600020906008020190506000600160008581526020019081526020016000208381548110611b0657fe5b906000526020600020906008020190508160000160009054906101000a900473ffffffffffffffffffffffffffffffffffffffff1673ffffffffffffffffffffffffffffffffffffffff163373ffffffffffffffffffffffffffffffffffffffff1614611bdb576040517f08c379a000000000000000000000000000000000000000000000000000000000815260040180806020018281038252601c8152602001807f4f6e6c792073656c6c65722063616e20616363657074206f666665720000000081525060200191505060405180910390fd5b60018160040160149054906101000a900460ff1660ff1614611c48576040517f08c379a000000000000000000000000000000000000000000000000000000000815260040180806020018281038252602d81526020018061383a602d913960400191505060405180910390fd5b620151804201816003018190555060028160040160146101000a81548160ff021916908360ff1602179055507fb1f777dbddfaefe5118072b58458e9c08b42e6108e32291b3e5a8586f6f2d23e8260000160009054906101000a900473ffffffffffffffffffffffffffffffffffffffff1685858460030154604051808573ffffffffffffffffffffffffffffffffffffffff1673ffffffffffffffffffffffffffffffffffffffff16815260200184815260200183815260200182815260200194505050505060405180910390a150505050565b6000808381548110611d2b57fe5b906000526020600020906008020190506000600160008581526020019081526020016000208381548110611d5b57fe5b9060005260206000209060080201905080600301544211611e23578060000160009054906101000a900473ffffffffffffffffffffffffffffffffffffffff1673ffffffffffffffffffffffffffffffffffffffff163373ffffffffffffffffffffffffffffffffffffffff1614611e1e576040517f08c379a00000000000000000000000000000000000000000000000000000000081526004018080602001828103825260278152602001806137966027913960400191505060405180910390fd5b611f26565b8060000160009054906101000a900473ffffffffffffffffffffffffffffffffffffffff1673ffffffffffffffffffffffffffffffffffffffff163373ffffffffffffffffffffffffffffffffffffffff161480611ed057508160000160009054906101000a900473ffffffffffffffffffffffffffffffffffffffff1673ffffffffffffffffffffffffffffffffffffffff163373ffffffffffffffffffffffffffffffffffffffff16145b611f25576040517f08c379a00000000000000000000000000000000000000000000000000000000081526004018080602001828103825260308152602001806137e06030913960400191505060405180910390fd5b5b60028160040160149054906101000a900460ff1660ff1614611f93576040517f08c379a000000000000000000000000000000000000000000000000000000000815260040180806020018281038252602e815260200180613999602e913960400191505060405180910390fd5b60008160020154826001015403905060008260020154111561201f578160000160009054906101000a900473ffffffffffffffffffffffffffffffffffffffff1673ffffffffffffffffffffffffffffffffffffffff166108fc83600201549081150290604051600060405180830381858888f1935050505015801561201d573d6000803e3d6000fd5b505b6000811115612094578260000160009054906101000a900473ffffffffffffffffffffffffffffffffffffffff1673ffffffffffffffffffffffffffffffffffffffff166108fc829081150290604051600060405180830381858888f19350505050158015612092573d6000803e3d6000fd5b505b8160070154600260008560000160009054906101000a900473ffffffffffffffffffffffffffffffffffffffff1673ffffffffffffffffffffffffffffffffffffffff1673ffffffffffffffffffffffffffffffffffffffff168152602001908152602001600020600001600082825401925050819055508160070154600260008460000160009054906101000a900473ffffffffffffffffffffffffffffffffffffffff1673ffffffffffffffffffffffffffffffffffffffff1673ffffffffffffffffffffffffffffffffffffffff1681526020019081526020016000206001016000828254019250508190555060048260040160146101000a81548160ff021916908360ff1602179055507f5b37e015c4674a3027f63a91ed0143bc1e1d01781a7bf01524200b1001872ea0338686604051808473ffffffffffffffffffffffffffffffffffffffff1673ffffffffffffffffffffffffffffffffffffffff168152602001838152602001828152602001935050505060405180910390a15050505050565b600060016000838152602001908152602001600020805490509050919050565b6000600360149054906101000a900460ff16905090565b600060016000858152602001908152602001600020838154811061227357fe5b9060005260206000209060080201905060018160040160149054906101000a900460ff1660ff161461230d576040517f08c379a000000000000000000000000000000000000000000000000000000000815260040180806020018281038252601d8152602001807f4f6e6c79206e6577206f666665722063616e206265207570646174656400000081525060200191505060405180910390fd5b8060000160009054906101000a900473ffffffffffffffffffffffffffffffffffffffff1673ffffffffffffffffffffffffffffffffffffffff163373ffffffffffffffffffffffffffffffffffffffff16146123d2576040517f08c379a000000000000000000000000000000000000000000000000000000000815260040180806020018281038252601b8152602001807f4f6e6c792062757965722063616e20757064617465206f66666572000000000081525060200191505060405180910390fd5b6000821161242b576040517f08c379a00000000000000000000000000000000000000000000000000000000081526004018080602001828103825260278152602001806139726027913960400191505060405180910390fd5b813414612483576040517f08c379a0000000000000000000000000000000000000000000000000000000008152600401808060200182810382526027815260200180613a3a6027913960400191505060405180910390fd5b8181600101600082825401925050819055507ff21f722c29a63e8c94a3d5bbc1af52729f9d3a36d30037cbce70b4a301601d5b33858585604051808573ffffffffffffffffffffffffffffffffffffffff1673ffffffffffffffffffffffffffffffffffffffff16815260200184815260200183815260200182815260200194505050505060405180910390a150505050565b600080858154811061252457fe5b90600052602060002090600802019050600060016000878152602001908152602001600020858154811061255457fe5b9060005260206000209060080201905060028160040160149054906101000a900460ff1660ff16146125d1576040517f08c379a00000000000000000000000000000000000000000000000000000000081526004018080602001828103825260318152602001806138ac6031913960400191505060405180910390fd5b8160000160009054906101000a900473ffffffffffffffffffffffffffffffffffffffff1673ffffffffffffffffffffffffffffffffffffffff163373ffffffffffffffffffffffffffffffffffffffff1614612679576040517f08c379a00000000000000000000000000000000000000000000000000000000081526004018080602001828103825260248152602001806138676024913960400191505060405180910390fd5b8381600201819055507fdf3d2c3cb205b914048ffd0a4260b19de6eace86722e809d713fcd2b46c54c7533878786604051808573ffffffffffffffffffffffffffffffffffffffff1673ffffffffffffffffffffffffffffffffffffffff16815260200184815260200183815260200182815260200194505050505060405180910390a1505050505050565b60008080549050905090565b600080838154811061271f57fe5b90600052602060002090600802019050600060016000858152602001908152602001600020838154811061274f57fe5b9060005260206000209060080201905060018160040160149054906101000a900460ff1660ff16146127cc576040517f08c379a000000000000000000000000000000000000000000000000000000000815260040180806020018281038252602d815260200180613769602d913960400191505060405180910390fd5b8060000160009054906101000a900473ffffffffffffffffffffffffffffffffffffffff1673ffffffffffffffffffffffffffffffffffffffff163373ffffffffffffffffffffffffffffffffffffffff16148061287957508160000160009054906101000a900473ffffffffffffffffffffffffffffffffffffffff1673ffffffffffffffffffffffffffffffffffffffff163373ffffffffffffffffffffffffffffffffffffffff16145b6128ce576040517f08c379a00000000000000000000000000000000000000000000000000000000081526004018080602001828103825260298152602001806139c76029913960400191505060405180910390fd5b8060000160009054906101000a900473ffffffffffffffffffffffffffffffffffffffff1673ffffffffffffffffffffffffffffffffffffffff166108fc82600101549081150290604051600060405180830381858888f1935050505015801561293c573d6000803e3d6000fd5b508060000160009054906101000a900473ffffffffffffffffffffffffffffffffffffffff1673ffffffffffffffffffffffffffffffffffffffff163373ffffffffffffffffffffffffffffffffffffffff1614156129e7576001600260003373ffffffffffffffffffffffffffffffffffffffff1673ffffffffffffffffffffffffffffffffffffffff168152602001908152602001600020600101600082825403925050819055505b8160000160009054906101000a900473ffffffffffffffffffffffffffffffffffffffff1673ffffffffffffffffffffffffffffffffffffffff163373ffffffffffffffffffffffffffffffffffffffff161415612a91576001600260003373ffffffffffffffffffffffffffffffffffffffff1673ffffffffffffffffffffffffffffffffffffffff168152602001908152602001600020600001600082825403925050819055505b60098160040160146101000a81548160ff021916908360ff1602179055507fa916c06d382a32a2d52751a0f59721c029227671188c07a99233bf72bd3c679b338585604051808473ffffffffffffffffffffffffffffffffffffffff1673ffffffffffffffffffffffffffffffffffffffff168152602001838152602001828152602001935050505060405180910390a150505050565b6000808381548110612b3657fe5b906000526020600020906008020190506000600160008581526020019081526020016000208381548110612b6657fe5b906000526020600020906008020190508060000160009054906101000a900473ffffffffffffffffffffffffffffffffffffffff1673ffffffffffffffffffffffffffffffffffffffff163373ffffffffffffffffffffffffffffffffffffffff161480612c2357508160000160009054906101000a900473ffffffffffffffffffffffffffffffffffffffff1673ffffffffffffffffffffffffffffffffffffffff163373ffffffffffffffffffffffffffffffffffffffff16145b612c95576040517f08c379a00000000000000000000000000000000000000000000000000000000081526004018080602001828103825260208152602001807f4f6e6c79206275796572206f722073656c6c65722063616e206469737075746581525060200191505060405180910390fd5b60028160040160149054906101000a900460ff1660ff1614612d1f576040517f08c379a000000000000000000000000000000000000000000000000000000000815260040180806020018281038252601f8152602001807f4f6e6c79206163636570746564206f666665722063616e20646973707574650081525060200191505060405180910390fd5b80600301544210612d7b576040517f08c379a00000000000000000000000000000000000000000000000000000000081526004018080602001828103825260238152602001806139036023913960400191505060405180910390fd5b60038160040160146101000a81548160ff021916908360ff1602179055507fec299c16239711585dd9fb61ccc8a80a0f8153d3ad17afe064b9622b433d3af5338585604051808473ffffffffffffffffffffffffffffffffffffffff1673ffffffffffffffffffffffffffffffffffffffff168152602001838152602001828152602001935050505060405180910390a150505050565b600360009054906101000a900473ffffffffffffffffffffffffffffffffffffffff1673ffffffffffffffffffffffffffffffffffffffff163373ffffffffffffffffffffffffffffffffffffffff1614612e6c57600080fd5b81600260008573ffffffffffffffffffffffffffffffffffffffff1673ffffffffffffffffffffffffffffffffffffffff1681526020019081526020016000206000016000828254019250508190555080600260008573ffffffffffffffffffffffffffffffffffffffff1673ffffffffffffffffffffffffffffffffffffffff168152602001908152602001600020600101600082825401925050819055507f552bdca49db5d8c72da62e90ade04757cb234c61f81669927622ccd9d4402d1a338383604051808473ffffffffffffffffffffffffffffffffffffffff1673ffffffffffffffffffffffffffffffffffffffff168152602001838152602001828152602001935050505060405180910390a1505050565b8060049080519060200190612f9a9291906135f3565b5050565b6000808381548110612fac57fe5b906000526020600020906008020190508060000160009054906101000a900473ffffffffffffffffffffffffffffffffffffffff1673ffffffffffffffffffffffffffffffffffffffff163373ffffffffffffffffffffffffffffffffffffffff1614613064576040517f08c379a00000000000000000000000000000000000000000000000000000000081526004018080602001828103825260238152602001806137bd6023913960400191505060405180910390fd5b600082116130bd576040517f08c379a000000000000000000000000000000000000000000000000000000000815260040180806020018281038252602a815260200180613926602a913960400191505060405180910390fd5b813414613115576040517f08c379a000000000000000000000000000000000000000000000000000000000815260040180806020018281038252602a815260200180613810602a913960400191505060405180910390fd5b8181600101600082825401925050819055507fc78ef278bfde63098e5b993bfa2806e07274893720de2b491fa6d5c10161ca6e338484604051808473ffffffffffffffffffffffffffffffffffffffff1673ffffffffffffffffffffffffffffffffffffffff168152602001838152602001828152602001935050505060405180910390a1505050565b60003390506000600190506131b2613640565b6040518061010001604052808473ffffffffffffffffffffffffffffffffffffffff1681526020018a81526020018360ff1681526020018981526020018881526020018781526020018681526020018581525090506000819080600181540180825580915050906001820390600052602060002090600802016000909192909190915060008201518160000160006101000a81548173ffffffffffffffffffffffffffffffffffffffff021916908373ffffffffffffffffffffffffffffffffffffffff1602179055506020820151816001015560408201518160020160006101000a81548160ff021916908360ff16021790555060608201518160030190805190602001906132c392919061369e565b5060808201518160040190805190602001906132e092919061369e565b5060a08201518160050190805190602001906132fd92919061369e565b5060c0820151816006015560e082015181600701908051906020019061332492919061369e565b505050507f0ded71478a9015881ff8ba6f33e77187e7e4e73daeec90972fd2bc7d8c6ed6a1336001600080549050038b8b8b8b8b8b8a604051808a73ffffffffffffffffffffffffffffffffffffffff1673ffffffffffffffffffffffffffffffffffffffff168152602001898152602001888152602001806020018060200180602001878152602001806020018660ff1660ff16815260200185810385528b818151815260200191508051906020019080838360005b838110156133f65780820151818401526020810190506133db565b50505050905090810190601f1680156134235780820380516001836020036101000a031916815260200191505b5085810384528a818151815260200191508051906020019080838360005b8381101561345c578082015181840152602081019050613441565b50505050905090810190601f1680156134895780820380516001836020036101000a031916815260200191505b50858103835289818151815260200191508051906020019080838360005b838110156134c25780820151818401526020810190506134a7565b50505050905090810190601f1680156134ef5780820380516001836020036101000a031916815260200191505b50858103825287818151815260200191508051906020019080838360005b8381101561352857808201518184015260208101905061350d565b50505050905090810190601f1680156135555780820380516001836020036101000a031916815260200191505b509d505050505050505050505050505060405180910390a1505050505050505050565b604051806101200160405280600073ffffffffffffffffffffffffffffffffffffffff168152602001600081526020016000815260200160008152602001600073ffffffffffffffffffffffffffffffffffffffff168152602001600060ff1681526020016000815260200160008152602001600081525090565b82805482825590600052602060002090810192821561362f579160200282015b8281111561362e578251825591602001919060010190613613565b5b50905061363c919061371e565b5090565b604051806101000160405280600073ffffffffffffffffffffffffffffffffffffffff16815260200160008152602001600060ff16815260200160608152602001606081526020016060815260200160008152602001606081525090565b828054600181600116156101000203166002900490600052602060002090601f016020900481019282601f106136df57805160ff191683800117855561370d565b8280016001018555821561370d579182015b8281111561370c5782518255916020019190600101906136f1565b5b50905061371a9190613743565b5090565b61374091905b8082111561373c576000816000905550600101613724565b5090565b90565b61376591905b80821115613761576000816000905550600101613749565b5090565b9056fe204f6e6c79206f66666572206f662063726561746564207374617475732063616e2062652063616e63656c65644f6e6c792062757965722063616e2066696e616c697a65206265666f726520646561646c696e654f6e6c792073656c6c65722063616e20757064617465206c697374696e6720646174614f6e6c79206275796572206f722073656c6c65722063616e2066696e616c697a6520616674657220646561646c696e654578747261206465706f73697420646f65736e2774206d61746368206465636c617265642076616c75654f6e6c79206f66666572206f66206372656174656420737461747573202063616e2062652061636365707465644f6e6c792073656c6c65722063616e207564706461746520726566756e642076616c756553656e64206261636b2073656c6c65722773206465706f736974206661696c65644f6e6c79206163636570746564206f66666572277320726566756e642076616c75652063616e20626520757064617465644f6e6c792061726269747261746f72206f66206f666665722063616e206172626974726174654f6e6c7920756e2d66696e616c697a6564206f666665722063616e206469737075746553656c6c6572206465706f736974206163636570747320706f7369746976652076616c7565206f6e6c794f6e6c792073656c6c65722063616e2063616e63656c20746865206c697374696e6742757965722076616c756520757064617465206e6565647320706f7369746976652076616c75654f6e6c79206f66666572206f66206163636570746564207374617475732063616e2062652066696e616c697a65646f6e6c792073656c6c6572206f722062757965722063616e2063616e63656c20746865206f666665724f6e6c79206469737075746564206f666665722063616e2062652061726269747261746564526566756e642063616e6e277420686967686572207468616e206f666665722076616c756545787472612066756e6420646f65736e2774206d61746368206465636c617265642076616c7565a165627a7a7230582087ef865cc76f45a58ef14d2cd453b6797611ea106de7d330cd2f55f8d59bcb630029",
  "source": "pragma solidity ^0.5.8;\r\n//\r\ncontract Marketplace{\r\n\r\n\r\n    struct Listing{//\r\n        address payable seller;\r\n        uint deposit;  //\r\n        uint8 status;      //019\r\n        string city;\r\n        string title;\r\n        string descHash;\r\n        uint price;\r\n        string imageHash;\r\n    }\r\n\r\n    struct Offer{//\r\n        address payable buyer;\r\n        uint value;\r\n        uint refund;  //\r\n        uint finalizes;      // \r\n        address arbitrator;//\r\n        uint8 status;        //0 12345\r\n                                    //9 \r\n        uint checkIn;        // \r\n        uint checkOut;       // \r\n        uint nights;         // \r\n    }\r\n\r\n    struct Credit {//\r\n        int seller;//\r\n        int buyer;//\r\n    }\r\n\r\n    Listing[] listings;//\r\n    mapping(uint => Offer[])  offers;//\r\n    mapping(address => Credit) credits;//\r\n\r\n    address admin;//\r\n    bool emergency = false;\r\n\r\n    // @dev Marketplace\r\n    event EmergencySet(address admin,bool flag);\r\n    event ListingCreated(address seller,uint listingId, uint deposit,string city,string title,string descHash,uint price,string imageHash,uint8 status);\r\n    event ListingCancelled(address seller,uint listingId);\r\n    event ListingDepositUpdated(address seller,uint listingId,uint extraDeposit);\r\n    event OfferCreated(address buyer,uint listingId,uint offerId,uint value,address arbitrator,uint checkIn,uint checkOut,uint nights);\r\n    event OfferValueUpdated(address buyer,uint listingId,uint offerId,uint extraValue);\r\n    event OfferRefundUpdated(address buyer,uint listingId,uint offerId,bytes32 dataHash);\r\n    event OfferAccepted(address seller,uint listingId,uint offerId,uint finalizes);\r\n    event OfferFinalized(address who,uint listingId,uint offerId);\r\n    event OfferCancelled(address who,uint listingId,uint offerId);\r\n    event OfferDisputed(address who,uint listingId,uint offerId);\r\n    event OfferArbitrated(address arbitrator,uint listingId,uint offerId,uint refund);\r\n    event CreditUpdated(address who,int sellerChange,int buyerChange);\r\n\r\n    constructor(address _admin) public{\r\n        admin = _admin;\r\n    }\r\n\r\n    // @dev \r\n    modifier adminOnly(){\r\n        require(msg.sender == admin);\r\n        _;\r\n    }\r\n\r\n    // @dev \r\n    modifier stopInEmergeycy() {\r\n        if(!emergency){\r\n          _;\r\n        }\r\n    }\r\n\r\n    // @dev \r\n    function setEmergency(bool flag) public adminOnly {\r\n        emergency = flag;\r\n\r\n        emit EmergencySet(msg.sender,flag);\r\n    }\r\n\r\n    // @dev get\r\n    function getEmergency() public view returns(bool) {\r\n      return emergency;\r\n    }\r\n\r\n    // @dev \r\n    function createListing( uint deposit, string memory city,string memory title,string memory descHash,uint price, string memory imageHash)  public payable {\r\n\r\n        //require(deposit > 0,\"Seller must deposit to create a listing\");\r\n        //require(deposit == msg.value, \"Seller deposit doesn't declared value\");\r\n\r\n        address payable seller = msg.sender;\r\n        uint8 status = 1;\r\n\r\n        Listing memory listing = Listing({\r\n            seller: seller,\r\n            deposit:deposit,\r\n            status: status,\r\n            city:city,\r\n            title:title,\r\n            descHash: descHash,\r\n            price: price,\r\n            imageHash: imageHash\r\n        });\r\n        listings.push(listing);\r\n\r\n        emit ListingCreated(msg.sender,listings.length - 1, deposit,city,title,descHash,price,imageHash,status);\r\n    }\r\n\r\n\r\n    // @dev \r\n    function cancelListing(uint listingId) public{\r\n        Listing storage listing = listings[listingId];\r\n\r\n        require(msg.sender == listing.seller,\"Only seller can cancel the listing\");\r\n\r\n        require(listing.seller.send(listing.deposit),\"Send back seller's deposit failed\");\r\n        listing.status = 9;\r\n\r\n        emit ListingCancelled(msg.sender,listingId);\r\n    }\r\n\r\n    // @dev \r\n    function updateListingDeposit(uint listingId,uint extraDeposit) public payable {\r\n        Listing storage listing = listings[listingId];\r\n\r\n        require(msg.sender == listing.seller, \"Only seller can update listing data\");\r\n        require(extraDeposit > 0 , \"Seller deposit accepts positive value only\");\r\n\r\n        require(msg.value == extraDeposit,\"Extra deposit doesn't match declared value\");\r\n        listing.deposit += extraDeposit;\r\n\r\n\r\n        emit ListingDepositUpdated(msg.sender,listingId, extraDeposit);\r\n    }\r\n\r\n    // @dev \r\n    function makeOffer(uint listingId, uint value,uint checkIn, uint nights, address arbitrator) public payable {\r\n        Listing storage listing = listings[listingId];\r\n\r\n        //require(msg.value == value, \"Paid ETH doesn't match declared offer\");\r\n        //require(msg.value >= nights * listing.price,\"Paid ETH cann't lower than price*nights\");\r\n        require(msg.value >0, \"No ETH paid for the offer\");\r\n\r\n        address payable buyer = msg.sender;\r\n\r\n        uint checkOut = checkIn + nights * 24 * 60 * 60;\r\n        //uint refund = msg.value - nights * listing.price;\r\n        uint refund = 0;\r\n\r\n        Offer memory offer = Offer({\r\n            buyer: buyer,\r\n            value: value,\r\n            refund:refund,\r\n            finalizes: 0,\r\n            arbitrator: arbitrator,\r\n            status: 1,\r\n            checkIn: checkIn,\r\n            checkOut: checkOut,\r\n            nights: nights\r\n        });\r\n        offers[listingId].push(offer);\r\n\r\n        emit OfferCreated(buyer, listingId,offers[listingId].length - 1,value,arbitrator,checkIn,checkOut,nights);\r\n    }\r\n\r\n    // @dev \r\n    function acceptOffer(uint listingId,uint offerId) public {\r\n        Listing storage listing = listings[listingId];\r\n        Offer storage offer = offers[listingId][offerId];\r\n\r\n        require(msg.sender == listing.seller, \"Only seller can accept offer\");\r\n        require(offer.status == 1, \"Only offer of created status  can be accepted\");\r\n\r\n        offer.finalizes = now + 1 days;\r\n        offer.status  = 2;\r\n\r\n        emit OfferAccepted(listing.seller,listingId,offerId,offer.finalizes);\r\n    }\r\n\r\n    // @dev \r\n    function finalizeOffer(uint listingId,uint offerId) public {\r\n        Listing storage listing = listings[listingId];\r\n        Offer storage offer = offers[listingId][offerId];\r\n\r\n        //\r\n        if(now <= offer.finalizes){\r\n            require(msg.sender == offer.buyer,\"Only buyer can finalize before deadline\");\r\n        }else{\r\n            require(msg.sender == offer.buyer || msg.sender == listing.seller,\"Only buyer or seller can finalize after deadline\");\r\n        }\r\n\r\n        require(offer.status == 2, \"Only offer of accepted status can be finalized\");\r\n\r\n        uint value = offer.value - offer.refund;\r\n        if(offer.refund > 0) {\r\n            offer.buyer.transfer(offer.refund);\r\n        }\r\n        if(value > 0){\r\n            listing.seller.transfer(value);\r\n        }\r\n\r\n        //\r\n        credits[listing.seller].seller += int(offer.nights);\r\n        credits[offer.buyer].buyer += int(offer.nights);\r\n\r\n        offer.status = 4;\r\n\r\n        emit OfferFinalized(msg.sender,listingId,offerId);\r\n\r\n    }\r\n\r\n    // @dev \r\n    function cancelOffer(uint listingId,uint offerId) public {\r\n        Listing storage listing = listings[listingId];\r\n        Offer storage offer = offers[listingId][offerId];\r\n\r\n        require(offer.status == 1, \" Only offer of created status can be canceled\");\r\n        require(msg.sender == offer.buyer || msg.sender == listing.seller, \"only seller or buyer can cancel the offer\");\r\n\r\n        //\r\n        //require(offer.buyer.send(offer.value),\"Refund buyer failed\");\r\n        offer.buyer.transfer(offer.value);\r\n\r\n        //\r\n        if(msg.sender == offer.buyer) {\r\n          credits[msg.sender].buyer -= 1;\r\n        }\r\n        if(msg.sender == listing.seller) {\r\n          credits[msg.sender].seller -= 1;\r\n        }\r\n\r\n        offer.status = 9;\r\n\r\n        emit OfferCancelled(msg.sender,listingId,offerId);\r\n\r\n\r\n    }\r\n\r\n    // @dev \r\n    function updateOfferValue(uint listingId,uint offerId,uint extraValue) public payable {\r\n        Offer storage offer = offers[listingId][offerId];\r\n\r\n        require(offer.status == 1, \"Only new offer can be updated\");\r\n        require(msg.sender == offer.buyer, \"Only buyer can update offer\");\r\n        require(extraValue >0, \"Buyer value update needs positive value\");\r\n\r\n        require(msg.value == extraValue,\"Extra fund doesn't match declared value\");\r\n        offer.value += extraValue;\r\n\r\n        emit OfferValueUpdated(msg.sender,listingId,offerId,extraValue);\r\n    }\r\n\r\n    // @dev \r\n    function updateOfferRefund(uint listingId,uint offerId,uint refund,bytes32 dataHash) public {\r\n        Listing storage listing = listings[listingId];\r\n        Offer storage offer =  offers[listingId][offerId];\r\n\r\n        require(offer.status == 2,\"Only accepted offer's refund value can be updated\");\r\n        require(msg.sender == listing.seller,\"Only seller can udpdate refund value\");\r\n\r\n        offer.refund = refund;\r\n\r\n        emit OfferRefundUpdated(msg.sender,listingId,offerId,dataHash);\r\n    }\r\n\r\n    // @dev \r\n    function disputeOffer(uint listingId,uint offerId) public {\r\n        Listing storage listing = listings[listingId];\r\n        Offer storage offer = offers[listingId][offerId];\r\n\r\n        require(msg.sender == offer.buyer || msg.sender == listing.seller, \"Only buyer or seller can dispute\");\r\n        require(offer.status == 2, \"Only accepted offer can dispute\");\r\n        require(now < offer.finalizes,\"Only un-finalized offer can dispute\");\r\n\r\n        offer.status = 3;\r\n\r\n        emit OfferDisputed(msg.sender,listingId,offerId);\r\n    }\r\n\r\n    // @dev \r\n    function arbitrateOffer(uint listingId,uint offerId,uint refund) public {\r\n        Listing storage listing = listings[listingId];\r\n        Offer storage offer = offers[listingId][offerId];\r\n\r\n        require(msg.sender == offer.arbitrator,\"Only arbitrator of offer can arbitrate\");\r\n        require(offer.status == 3, \"Only disputed offer can be arbitrated\");\r\n        require(refund <= offer.value, \"Refund cann't higher than offer value\");\r\n\r\n        uint value = offer.value - refund;\r\n        if(refund > 0){\r\n            offer.buyer.transfer(refund);\r\n        }\r\n        if(value >0 ) {\r\n            listing.seller.transfer(value);\r\n        }\r\n\r\n        offer.status = 5;\r\n\r\n        emit OfferArbitrated(msg.sender,listingId,offerId,refund);\r\n\r\n        //delete offers[listingId][offerId];\r\n    }\r\n\r\n    // @dev \r\n    function totalListings() public view returns(uint){\r\n        return listings.length;\r\n    }\r\n\r\n    // @dev \r\n    function totalOffers(uint listingId) public view returns(uint) {\r\n        return offers[listingId].length;\r\n    }\r\n\r\n    // @dev  \r\n    function getListing(uint listingId) public view returns(address,uint,uint8,string memory,string memory,string memory,uint,string memory){\r\n        Listing storage listing = listings[listingId];\r\n        return (listing.seller,listing.deposit,listing.status,listing.city,listing.title,listing.descHash,listing.price,listing.imageHash);\r\n    }\r\n\r\n    // @dev \r\n    function getOffer(uint listingId,uint offerId) public view returns(address,uint,uint,uint,address,uint8,uint,uint){\r\n      Offer storage offer = offers[listingId][offerId];\r\n      return (offer.buyer,offer.value,offer.refund,offer.finalizes,offer.arbitrator,offer.status,offer.checkIn,offer.checkOut);\r\n    }\r\n\r\n    // @dev \r\n    function updateCredit(address user, int sellerChange,int buyerChange) public adminOnly {\r\n        //require(msg.sender == admin, \"Only admin can update user credits\");\r\n\r\n        credits[user].seller += sellerChange;\r\n        credits[user].buyer += buyerChange;\r\n\r\n        emit CreditUpdated(msg.sender,sellerChange,buyerChange);\r\n    }\r\n\r\n    // @dev get\r\n    function getCredit(address user) public view returns(int,int) {\r\n        Credit storage credit = credits[user];\r\n        return (credit.seller,credit.buyer);\r\n    }\r\n\r\n    bytes32[] hashes;\r\n    function setHashes(bytes32[] memory _hashes) public {\r\n      hashes = _hashes;\r\n    }\r\n    function getHashes() public view returns(bytes32[] memory) {\r\n      return hashes;\r\n    }\r\n\r\n}\r\n",
  "sourcePath": "D:/workspace/Visual Studio Code/derental/contracts/Marketplace.sol",
  "compiler": {
    "name": "solc",
    "version": "0.5.8+commit.23d335f2.Emscripten.clang"
  },
  "schemaVersion": "3.0.13",
  "updatedAt": "2019-09-11T11:51:21.652Z",
  "devdoc": {
    "methods": {}
  },
  "userdoc": {
    "methods": {}
  }
}