{
  "contractName": "TradeHouse",
  "abi": [
    {
      "constant": false,
      "inputs": [
        {
          "name": "_imageUrl",
          "type": "string"
        },
        {
          "name": "_location",
          "type": "string"
        },
        {
          "name": "_price",
          "type": "uint32"
        }
      ],
      "name": "addHouse",
      "outputs": [],
      "payable": false,
      "stateMutability": "nonpayable",
      "type": "function",
      "signature": "0x0210197b"
    },
    {
      "constant": true,
      "inputs": [
        {
          "name": "",
          "type": "uint256"
        }
      ],
      "name": "userToOwner",
      "outputs": [
        {
          "name": "",
          "type": "address"
        }
      ],
      "payable": false,
      "stateMutability": "view",
      "type": "function",
      "signature": "0x0d7b081c"
    },
    {
      "constant": true,
      "inputs": [
        {
          "name": "",
          "type": "uint256"
        }
      ],
      "name": "houseToRenter",
      "outputs": [
        {
          "name": "",
          "type": "address"
        }
      ],
      "payable": false,
      "stateMutability": "view",
      "type": "function",
      "signature": "0x247d125b"
    },
    {
      "constant": false,
      "inputs": [
        {
          "name": "_userId",
          "type": "uint256"
        },
        {
          "name": "_userName",
          "type": "string"
        }
      ],
      "name": "changeUserName",
      "outputs": [],
      "payable": false,
      "stateMutability": "nonpayable",
      "type": "function",
      "signature": "0x3300cd19"
    },
    {
      "constant": true,
      "inputs": [
        {
          "name": "",
          "type": "uint256"
        }
      ],
      "name": "users",
      "outputs": [
        {
          "name": "userName",
          "type": "string"
        },
        {
          "name": "phoneNumber",
          "type": "string"
        }
      ],
      "payable": false,
      "stateMutability": "view",
      "type": "function",
      "signature": "0x365b98b2"
    },
    {
      "constant": false,
      "inputs": [
        {
          "name": "_houseId",
          "type": "uint256"
        },
        {
          "name": "_imageUrl",
          "type": "string"
        }
      ],
      "name": "changeHouseImageUrl",
      "outputs": [],
      "payable": false,
      "stateMutability": "nonpayable",
      "type": "function",
      "signature": "0x6f90eba7"
    },
    {
      "constant": true,
      "inputs": [
        {
          "name": "_owner",
          "type": "address"
        }
      ],
      "name": "getHousesByOwner",
      "outputs": [
        {
          "name": "",
          "type": "uint256[]"
        }
      ],
      "payable": false,
      "stateMutability": "view",
      "type": "function",
      "signature": "0x75e6c709"
    },
    {
      "constant": false,
      "inputs": [
        {
          "name": "_name",
          "type": "string"
        },
        {
          "name": "_phoneNumber",
          "type": "string"
        }
      ],
      "name": "createUser",
      "outputs": [],
      "payable": false,
      "stateMutability": "nonpayable",
      "type": "function",
      "signature": "0x87b162b5"
    },
    {
      "constant": true,
      "inputs": [],
      "name": "owner",
      "outputs": [
        {
          "name": "",
          "type": "address"
        }
      ],
      "payable": false,
      "stateMutability": "view",
      "type": "function",
      "signature": "0x8da5cb5b"
    },
    {
      "constant": false,
      "inputs": [
        {
          "name": "_houseId",
          "type": "uint256"
        },
        {
          "name": "_price",
          "type": "uint32"
        }
      ],
      "name": "changeHousePrice",
      "outputs": [],
      "payable": false,
      "stateMutability": "nonpayable",
      "type": "function",
      "signature": "0x92db5bc0"
    },
    {
      "constant": true,
      "inputs": [
        {
          "name": "",
          "type": "uint256"
        }
      ],
      "name": "isHouseRented",
      "outputs": [
        {
          "name": "",
          "type": "uint256"
        }
      ],
      "payable": false,
      "stateMutability": "view",
      "type": "function",
      "signature": "0x9fd77ddd"
    },
    {
      "constant": true,
      "inputs": [
        {
          "name": "",
          "type": "uint256"
        }
      ],
      "name": "houses",
      "outputs": [
        {
          "name": "imageUrl",
          "type": "string"
        },
        {
          "name": "location",
          "type": "string"
        },
        {
          "name": "price",
          "type": "uint32"
        }
      ],
      "payable": false,
      "stateMutability": "view",
      "type": "function",
      "signature": "0xaeda852f"
    },
    {
      "constant": true,
      "inputs": [
        {
          "name": "_renter",
          "type": "address"
        }
      ],
      "name": "getHousesByRenter",
      "outputs": [
        {
          "name": "",
          "type": "uint256[]"
        }
      ],
      "payable": false,
      "stateMutability": "view",
      "type": "function",
      "signature": "0xb2059207"
    },
    {
      "constant": false,
      "inputs": [
        {
          "name": "_houseId",
          "type": "uint256"
        },
        {
          "name": "_location",
          "type": "string"
        }
      ],
      "name": "changeHouseLocation",
      "outputs": [],
      "payable": false,
      "stateMutability": "nonpayable",
      "type": "function",
      "signature": "0xc0ef54e1"
    },
    {
      "constant": true,
      "inputs": [
        {
          "name": "",
          "type": "uint256"
        }
      ],
      "name": "houseToOwner",
      "outputs": [
        {
          "name": "",
          "type": "address"
        }
      ],
      "payable": false,
      "stateMutability": "view",
      "type": "function",
      "signature": "0xcf9ce6fc"
    },
    {
      "constant": true,
      "inputs": [
        {
          "name": "_owner",
          "type": "address"
        }
      ],
      "name": "getUserByOwner",
      "outputs": [
        {
          "name": "",
          "type": "uint256"
        }
      ],
      "payable": false,
      "stateMutability": "view",
      "type": "function",
      "signature": "0xdaac7252"
    },
    {
      "constant": false,
      "inputs": [
        {
          "name": "_userId",
          "type": "uint256"
        },
        {
          "name": "_phoneNumber",
          "type": "string"
        }
      ],
      "name": "changeUserPhoneNumber",
      "outputs": [],
      "payable": false,
      "stateMutability": "nonpayable",
      "type": "function",
      "signature": "0xe46e52c8"
    },
    {
      "constant": false,
      "inputs": [
        {
          "name": "newOwner",
          "type": "address"
        }
      ],
      "name": "transferOwnership",
      "outputs": [],
      "payable": false,
      "stateMutability": "nonpayable",
      "type": "function",
      "signature": "0xf2fde38b"
    },
    {
      "anonymous": false,
      "inputs": [
        {
          "indexed": false,
          "name": "userId",
          "type": "uint256"
        },
        {
          "indexed": false,
          "name": "name",
          "type": "string"
        },
        {
          "indexed": false,
          "name": "phoneNumber",
          "type": "string"
        }
      ],
      "name": "NewUser",
      "type": "event",
      "signature": "0x64979422818c70217f49521f1bd79aa0196f6b00dd0d566bdbbfed150eb753ea"
    },
    {
      "anonymous": false,
      "inputs": [
        {
          "indexed": false,
          "name": "houseId",
          "type": "uint256"
        },
        {
          "indexed": false,
          "name": "imageUrl",
          "type": "string"
        },
        {
          "indexed": false,
          "name": "location",
          "type": "string"
        },
        {
          "indexed": false,
          "name": "price",
          "type": "uint32"
        }
      ],
      "name": "NewHouse",
      "type": "event",
      "signature": "0x23f5df6bd013d90f4c3d2e70d3981ab38f72361a1da0d852c2128b18085632af"
    },
    {
      "anonymous": false,
      "inputs": [
        {
          "indexed": true,
          "name": "previousOwner",
          "type": "address"
        },
        {
          "indexed": true,
          "name": "newOwner",
          "type": "address"
        }
      ],
      "name": "OwnershipTransferred",
      "type": "event",
      "signature": "0x8be0079c531659141344cd1fd0a4f28419497f9722a3daafe3b4186f6b6457e0"
    },
    {
      "constant": false,
      "inputs": [
        {
          "name": "_fee",
          "type": "uint256"
        }
      ],
      "name": "setTradeFee",
      "outputs": [],
      "payable": false,
      "stateMutability": "nonpayable",
      "type": "function",
      "signature": "0x10603023"
    },
    {
      "constant": false,
      "inputs": [
        {
          "name": "_owner",
          "type": "address"
        },
        {
          "name": "_houseId",
          "type": "uint256"
        }
      ],
      "name": "transfer",
      "outputs": [],
      "payable": false,
      "stateMutability": "nonpayable",
      "type": "function",
      "signature": "0xa9059cbb"
    },
    {
      "constant": false,
      "inputs": [
        {
          "name": "_owner",
          "type": "address"
        },
        {
          "name": "_houseId",
          "type": "uint256"
        }
      ],
      "name": "rent",
      "outputs": [
        {
          "name": "",
          "type": "bool"
        }
      ],
      "payable": false,
      "stateMutability": "nonpayable",
      "type": "function",
      "signature": "0xd4abcacb"
    }
  ],
  "bytecode": "0x608060405266038d7ea4c68000600b55336000806101000a81548173ffffffffffffffffffffffffffffffffffffffff021916908373ffffffffffffffffffffffffffffffffffffffff160217905550620186a0600a60003373ffffffffffffffffffffffffffffffffffffffff1673ffffffffffffffffffffffffffffffffffffffff1681526020019081526020016000208190555061231d806100a56000396000f3fe60806040526004361061011d576000357c0100000000000000000000000000000000000000000000000000000000900463ffffffff1680630210197b146101225780630d7b081c1461020d5780631060302314610288578063247d125b146102c35780633300cd191461033e578063365b98b2146103ce5780636f90eba7146104ee57806375e6c7091461057e57806387b162b5146106245780638da5cb5b146106ff57806392db5bc0146107565780639fd77ddd146107a1578063a9059cbb146107f0578063aeda852f1461084b578063b20592071461097e578063c0ef54e114610a24578063cf9ce6fc14610ab4578063d4abcacb14610b2f578063daac725214610ba2578063e46e52c814610c07578063f2fde38b14610c97575b600080fd5b34801561012e57600080fd5b5061020b6004803603606081101561014557600080fd5b810190808035906020019064010000000081111561016257600080fd5b82018360208201111561017457600080fd5b8035906020019184600183028401116401000000008311171561019657600080fd5b9091929391929390803590602001906401000000008111156101b757600080fd5b8201836020820111156101c957600080fd5b803590602001918460018302840111640100000000831117156101eb57600080fd5b9091929391929390803563ffffffff169060200190929190505050610ce8565b005b34801561021957600080fd5b506102466004803603602081101561023057600080fd5b8101908080359060200190929190505050610f9e565b604051808273ffffffffffffffffffffffffffffffffffffffff1673ffffffffffffffffffffffffffffffffffffffff16815260200191505060405180910390f35b34801561029457600080fd5b506102c1600480360360208110156102ab57600080fd5b8101908080359060200190929190505050610fd1565b005b3480156102cf57600080fd5b506102fc600480360360208110156102e657600080fd5b8101908080359060200190929190505050611036565b604051808273ffffffffffffffffffffffffffffffffffffffff1673ffffffffffffffffffffffffffffffffffffffff16815260200191505060405180910390f35b34801561034a57600080fd5b506103cc6004803603604081101561036157600080fd5b81019080803590602001909291908035906020019064010000000081111561038857600080fd5b82018360208201111561039a57600080fd5b803590602001918460018302840111640100000000831117156103bc57600080fd5b9091929391929390505050611069565b005b3480156103da57600080fd5b50610407600480360360208110156103f157600080fd5b810190808035906020019092919050505061110d565b604051808060200180602001838103835285818151815260200191508051906020019080838360005b8381101561044b578082015181840152602081019050610430565b50505050905090810190601f1680156104785780820380516001836020036101000a031916815260200191505b50838103825284818151815260200191508051906020019080838360005b838110156104b1578082015181840152602081019050610496565b50505050905090810190601f1680156104de5780820380516001836020036101000a031916815260200191505b5094505050505060405180910390f35b3480156104fa57600080fd5b5061057c6004803603604081101561051157600080fd5b81019080803590602001909291908035906020019064010000000081111561053857600080fd5b82018360208201111561054a57600080fd5b8035906020019184600183028401116401000000008311171561056c57600080fd5b9091929391929390505050611270565b005b34801561058a57600080fd5b506105cd600480360360208110156105a157600080fd5b81019080803573ffffffffffffffffffffffffffffffffffffffff169060200190929190505050611314565b6040518080602001828103825283818151815260200191508051906020019060200280838360005b838110156106105780820151818401526020810190506105f5565b505050509050019250505060405180910390f35b34801561063057600080fd5b506106fd6004803603604081101561064757600080fd5b810190808035906020019064010000000081111561066457600080fd5b82018360208201111561067657600080fd5b8035906020019184600183028401116401000000008311171561069857600080fd5b9091929391929390803590602001906401000000008111156106b957600080fd5b8201836020820111156106cb57600080fd5b803590602001918460018302840111640100000000831117156106ed57600080fd5b9091929391929390505050611464565b005b34801561070b57600080fd5b50610714611705565b604051808273ffffffffffffffffffffffffffffffffffffffff1673ffffffffffffffffffffffffffffffffffffffff16815260200191505060405180910390f35b34801561076257600080fd5b5061079f6004803603604081101561077957600080fd5b8101908080359060200190929190803563ffffffff16906020019092919050505061172a565b005b3480156107ad57600080fd5b506107da600480360360208110156107c457600080fd5b81019080803590602001909291905050506117dc565b6040518082815260200191505060405180910390f35b3480156107fc57600080fd5b506108496004803603604081101561081357600080fd5b81019080803573ffffffffffffffffffffffffffffffffffffffff169060200190929190803590602001909291905050506117f4565b005b34801561085757600080fd5b506108846004803603602081101561086e57600080fd5b8101908080359060200190929190505050611803565b6040518080602001806020018463ffffffff1663ffffffff168152602001838103835286818151815260200191508051906020019080838360005b838110156108da5780820151818401526020810190506108bf565b50505050905090810190601f1680156109075780820380516001836020036101000a031916815260200191505b50838103825285818151815260200191508051906020019080838360005b83811015610940578082015181840152602081019050610925565b50505050905090810190601f16801561096d5780820380516001836020036101000a031916815260200191505b509550505050505060405180910390f35b34801561098a57600080fd5b506109cd600480360360208110156109a157600080fd5b81019080803573ffffffffffffffffffffffffffffffffffffffff16906020019092919050505061197c565b6040518080602001828103825283818151815260200191508051906020019060200280838360005b83811015610a105780820151818401526020810190506109f5565b505050509050019250505060405180910390f35b348015610a3057600080fd5b50610ab260048036036040811015610a4757600080fd5b810190808035906020019092919080359060200190640100000000811115610a6e57600080fd5b820183602082011115610a8057600080fd5b80359060200191846001830284011164010000000083111715610aa257600080fd5b9091929391929390505050611aad565b005b348015610ac057600080fd5b50610aed60048036036020811015610ad757600080fd5b8101908080359060200190929190505050611b51565b604051808273ffffffffffffffffffffffffffffffffffffffff1673ffffffffffffffffffffffffffffffffffffffff16815260200191505060405180910390f35b348015610b3b57600080fd5b50610b8860048036036040811015610b5257600080fd5b81019080803573ffffffffffffffffffffffffffffffffffffffff16906020019092919080359060200190929190505050611b84565b604051808215151515815260200191505060405180910390f35b348015610bae57600080fd5b50610bf160048036036020811015610bc557600080fd5b81019080803573ffffffffffffffffffffffffffffffffffffffff169060200190929190505050611c42565b6040518082815260200191505060405180910390f35b348015610c1357600080fd5b50610c9560048036036040811015610c2a57600080fd5b810190808035906020019092919080359060200190640100000000811115610c5157600080fd5b820183602082011115610c6357600080fd5b80359060200191846001830284011164010000000083111715610c8557600080fd5b9091929391929390505050611cdb565b005b348015610ca357600080fd5b50610ce660048036036020811015610cba57600080fd5b81019080803573ffffffffffffffffffffffffffffffffffffffff169060200190929190505050611d7f565b005b60006001600260606040519081016040528089898080601f016020809104026020016040519081016040528093929190818152602001838380828437600081840152601f19601f82011690508083019250505050505050815260200187878080601f016020809104026020016040519081016040528093929190818152602001838380828437600081840152601f19601f8201169050808301925050505050505081526020018563ffffffff16815250908060018154018082558091505090600182039060005260206000209060030201600090919290919091506000820151816000019080519060200190610ddf9291906121cc565b506020820151816001019080519060200190610dfc9291906121cc565b5060408201518160020160006101000a81548163ffffffff021916908363ffffffff1602179055505050039050336004600083815260200190815260200160002060006101000a81548173ffffffffffffffffffffffffffffffffffffffff021916908373ffffffffffffffffffffffffffffffffffffffff160217905550600860003373ffffffffffffffffffffffffffffffffffffffff1673ffffffffffffffffffffffffffffffffffffffff16815260200190815260200160002060008154809291906001019190505550600060066000838152602001908152602001600020819055507f23f5df6bd013d90f4c3d2e70d3981ab38f72361a1da0d852c2128b18085632af8187878787876040518087815260200180602001806020018463ffffffff1663ffffffff1681526020018381038352888882818152602001925080828437600081840152601f19601f8201169050808301925050508381038252868682818152602001925080828437600081840152601f19601f8201169050808301925050509850505050505050505060405180910390a1505050505050565b60036020528060005260406000206000915054906101000a900473ffffffffffffffffffffffffffffffffffffffff1681565b6000809054906101000a900473ffffffffffffffffffffffffffffffffffffffff1673ffffffffffffffffffffffffffffffffffffffff163373ffffffffffffffffffffffffffffffffffffffff1614151561102c57600080fd5b80600b8190555050565b60056020528060005260406000206000915054906101000a900473ffffffffffffffffffffffffffffffffffffffff1681565b826003600082815260200190815260200160002060009054906101000a900473ffffffffffffffffffffffffffffffffffffffff1673ffffffffffffffffffffffffffffffffffffffff163373ffffffffffffffffffffffffffffffffffffffff161415156110d757600080fd5b82826001868154811015156110e857fe5b9060005260206000209060020201600001919061110692919061224c565b5050505050565b60018181548110151561111c57fe5b9060005260206000209060020201600091509050806000018054600181600116156101000203166002900480601f0160208091040260200160405190810160405280929190818152602001828054600181600116156101000203166002900480156111c85780601f1061119d576101008083540402835291602001916111c8565b820191906000526020600020905b8154815290600101906020018083116111ab57829003601f168201915b505050505090806001018054600181600116156101000203166002900480601f0160208091040260200160405190810160405280929190818152602001828054600181600116156101000203166002900480156112665780601f1061123b57610100808354040283529160200191611266565b820191906000526020600020905b81548152906001019060200180831161124957829003601f168201915b5050505050905082565b6004600084815260200190815260200160002060009054906101000a900473ffffffffffffffffffffffffffffffffffffffff168073ffffffffffffffffffffffffffffffffffffffff163373ffffffffffffffffffffffffffffffffffffffff161415156112de57600080fd5b82826002868154811015156112ef57fe5b9060005260206000209060030201600001919061130d92919061224c565b5050505050565b606080600860008473ffffffffffffffffffffffffffffffffffffffff1673ffffffffffffffffffffffffffffffffffffffff168152602001908152602001600020546040519080825280602002602001820160405280156113855781602001602082028038833980820191505090505b509050600080905060008090505b600280549050811015611459578473ffffffffffffffffffffffffffffffffffffffff166004600083815260200190815260200160002060009054906101000a900473ffffffffffffffffffffffffffffffffffffffff1673ffffffffffffffffffffffffffffffffffffffff16148015611421575060006006600083815260200190815260200160002054145b1561144c5780838381518110151561143557fe5b906020019060200201818152505081806001019250505b8080600101915050611393565b508192505050919050565b6000600760003373ffffffffffffffffffffffffffffffffffffffff1673ffffffffffffffffffffffffffffffffffffffff168152602001908152602001600020541415156114b257600080fd5b6000600180604080519081016040528088888080601f016020809104026020016040519081016040528093929190818152602001838380828437600081840152601f19601f82011690508083019250505050505050815260200186868080601f016020809104026020016040519081016040528093929190818152602001838380828437600081840152601f19601f8201169050808301925050505050505081525090806001815401808255809150509060018203906000526020600020906002020160009091929091909150600082015181600001908051906020019061159b9291906121cc565b5060208201518160010190805190602001906115b89291906121cc565b505050039050336003600083815260200190815260200160002060006101000a81548173ffffffffffffffffffffffffffffffffffffffff021916908373ffffffffffffffffffffffffffffffffffffffff160217905550600760003373ffffffffffffffffffffffffffffffffffffffff1673ffffffffffffffffffffffffffffffffffffffff168152602001908152602001600020600081548092919060010191905055507f64979422818c70217f49521f1bd79aa0196f6b00dd0d566bdbbfed150eb753ea81868686866040518086815260200180602001806020018381038352878782818152602001925080828437600081840152601f19601f8201169050808301925050508381038252858582818152602001925080828437600081840152601f19601f82011690508083019250505097505050505050505060405180910390a15050505050565b6000809054906101000a900473ffffffffffffffffffffffffffffffffffffffff1681565b6004600083815260200190815260200160002060009054906101000a900473ffffffffffffffffffffffffffffffffffffffff168073ffffffffffffffffffffffffffffffffffffffff163373ffffffffffffffffffffffffffffffffffffffff1614151561179857600080fd5b816002848154811015156117a857fe5b906000526020600020906003020160020160006101000a81548163ffffffff021916908363ffffffff160217905550505050565b60066020528060005260406000206000915090505481565b6117ff338383611ed4565b5050565b60028181548110151561181257fe5b9060005260206000209060030201600091509050806000018054600181600116156101000203166002900480601f0160208091040260200160405190810160405280929190818152602001828054600181600116156101000203166002900480156118be5780601f10611893576101008083540402835291602001916118be565b820191906000526020600020905b8154815290600101906020018083116118a157829003601f168201915b505050505090806001018054600181600116156101000203166002900480601f01602080910402602001604051908101604052809291908181526020018280546001816001161561010002031660029004801561195c5780601f106119315761010080835404028352916020019161195c565b820191906000526020600020905b81548152906001019060200180831161193f57829003601f168201915b5050505050908060020160009054906101000a900463ffffffff16905083565b606080600960008473ffffffffffffffffffffffffffffffffffffffff1673ffffffffffffffffffffffffffffffffffffffff168152602001908152602001600020546040519080825280602002602001820160405280156119ed5781602001602082028038833980820191505090505b509050600080905060008090505b600280549050811015611aa2578473ffffffffffffffffffffffffffffffffffffffff166005600083815260200190815260200160002060009054906101000a900473ffffffffffffffffffffffffffffffffffffffff1673ffffffffffffffffffffffffffffffffffffffff161415611a9557808383815181101515611a7e57fe5b906020019060200201818152505081806001019250505b80806001019150506119fb565b508192505050919050565b6004600084815260200190815260200160002060009054906101000a900473ffffffffffffffffffffffffffffffffffffffff168073ffffffffffffffffffffffffffffffffffffffff163373ffffffffffffffffffffffffffffffffffffffff16141515611b1b57600080fd5b8282600286815481101515611b2c57fe5b90600052602060002090600302016001019190611b4a92919061224c565b5050505050565b60046020528060005260406000206000915054906101000a900473ffffffffffffffffffffffffffffffffffffffff1681565b6000806006600084815260200190815260200160002054141515611ba757600080fd5b600282815481101515611bb657fe5b906000526020600020906003020160020160009054906101000a900463ffffffff1663ffffffff16600a60003373ffffffffffffffffffffffffffffffffffffffff1673ffffffffffffffffffffffffffffffffffffffff168152602001908152602001600020541015611c2d5760009050611c3c565b611c3783836117f4565b600190505b92915050565b600080600090505b600180549050811015611cd4578273ffffffffffffffffffffffffffffffffffffffff166003600083815260200190815260200160002060009054906101000a900473ffffffffffffffffffffffffffffffffffffffff1673ffffffffffffffffffffffffffffffffffffffff161415611cc75780915050611cd6565b8080600101915050611c4a565b505b919050565b826003600082815260200190815260200160002060009054906101000a900473ffffffffffffffffffffffffffffffffffffffff1673ffffffffffffffffffffffffffffffffffffffff163373ffffffffffffffffffffffffffffffffffffffff16141515611d4957600080fd5b8282600186815481101515611d5a57fe5b90600052602060002090600202016001019190611d7892919061224c565b5050505050565b6000809054906101000a900473ffffffffffffffffffffffffffffffffffffffff1673ffffffffffffffffffffffffffffffffffffffff163373ffffffffffffffffffffffffffffffffffffffff16141515611dda57600080fd5b600073ffffffffffffffffffffffffffffffffffffffff168173ffffffffffffffffffffffffffffffffffffffff1614151515611e1657600080fd5b8073ffffffffffffffffffffffffffffffffffffffff166000809054906101000a900473ffffffffffffffffffffffffffffffffffffffff1673ffffffffffffffffffffffffffffffffffffffff167f8be0079c531659141344cd1fd0a4f28419497f9722a3daafe3b4186f6b6457e060405160405180910390a3806000806101000a81548173ffffffffffffffffffffffffffffffffffffffff021916908373ffffffffffffffffffffffffffffffffffffffff16021790555050565b611f276001600960008673ffffffffffffffffffffffffffffffffffffffff1673ffffffffffffffffffffffffffffffffffffffff1681526020019081526020016000205461219590919063ffffffff16565b600960008573ffffffffffffffffffffffffffffffffffffffff1673ffffffffffffffffffffffffffffffffffffffff16815260200190815260200160002081905550826005600083815260200190815260200160002060006101000a81548173ffffffffffffffffffffffffffffffffffffffff021916908373ffffffffffffffffffffffffffffffffffffffff160217905550611fe36001600660008481526020019081526020016000205461219590919063ffffffff16565b600660008381526020019081526020016000208190555061208260028281548110151561200c57fe5b906000526020600020906003020160020160009054906101000a900463ffffffff1663ffffffff16600a60008673ffffffffffffffffffffffffffffffffffffffff1673ffffffffffffffffffffffffffffffffffffffff168152602001908152602001600020546121b390919063ffffffff16565b600a60008573ffffffffffffffffffffffffffffffffffffffff1673ffffffffffffffffffffffffffffffffffffffff1681526020019081526020016000208190555061214d6002828154811015156120d757fe5b906000526020600020906003020160020160009054906101000a900463ffffffff1663ffffffff16600a60008573ffffffffffffffffffffffffffffffffffffffff1673ffffffffffffffffffffffffffffffffffffffff1681526020019081526020016000205461219590919063ffffffff16565b600a60008473ffffffffffffffffffffffffffffffffffffffff1673ffffffffffffffffffffffffffffffffffffffff16815260200190815260200160002081905550505050565b60008082840190508381101515156121a957fe5b8091505092915050565b60008282111515156121c157fe5b818303905092915050565b828054600181600116156101000203166002900490600052602060002090601f016020900481019282601f1061220d57805160ff191683800117855561223b565b8280016001018555821561223b579182015b8281111561223a57825182559160200191906001019061221f565b5b50905061224891906122cc565b5090565b828054600181600116156101000203166002900490600052602060002090601f016020900481019282601f1061228d57803560ff19168380011785556122bb565b828001600101855582156122bb579182015b828111156122ba57823582559160200191906001019061229f565b5b5090506122c891906122cc565b5090565b6122ee91905b808211156122ea5760008160009055506001016122d2565b5090565b9056fea165627a7a72305820a84486dff6feeb5b3adc7a875749ba92c118d5dd580cf129394cb176955502b60029",
  "source": "pragma solidity ^0.5.0;\r\n\r\nimport \"./userHelper.sol\";\r\nimport \"./erc721.sol\";\r\nimport \"./safeMath.sol\";\r\n\r\ncontract TradeHouse is UserHelper {\r\n  using SafeMath for uint256;\r\n\r\n  uint tradeFee = 0.001 ether;\r\n\r\n  function setTradeFee(uint _fee) external onlyOwner {\r\n    tradeFee = _fee;\r\n  }\r\n\r\n  function _transfer(address _renter, address _owner, uint _houseId) private {\r\n    renterHouseCount[_renter] = renterHouseCount[_renter].add(1);\r\n    houseToRenter[_houseId] = _renter;\r\n    isHouseRented[_houseId] = isHouseRented[_houseId].add(1);\r\n    ownerMoneyCount[_renter] = ownerMoneyCount[_renter].sub(houses[_houseId].price);\r\n    ownerMoneyCount[_owner] = ownerMoneyCount[_owner].add(houses[_houseId].price);\r\n  }\r\n\r\n  function transfer(address _owner, uint _houseId) public {\r\n    _transfer(msg.sender, _owner, _houseId);\r\n  }\r\n\r\n  /*\r\n    msg.sender rent the house(_houseId) of owner(_owner)\r\n  */\r\n  function rent(address _owner, uint _houseId) public returns (bool) {\r\n    require(isHouseRented[_houseId] == 0);\r\n    if(ownerMoneyCount[msg.sender] < houses[_houseId].price) {\r\n      return false;\r\n    }\r\n    transfer(_owner, _houseId);\r\n    return true;\r\n  }\r\n}\r\n",
  "sourcePath": "D:/react-box-master/react-box-master/contracts/tradeHouse.sol",
  "compiler": {
    "name": "solc",
    "version": "0.5.0+commit.1d4f565a.Emscripten.clang"
  },
  "schemaVersion": "3.0.2",
  "updatedAt": "2019-03-10T05:37:23.717Z",
  "devdoc": {
    "methods": {
      "transferOwnership(address)": {
        "details": "Allows the current owner to transfer control of the contract to a newOwner.\r",
        "params": {
          "newOwner": "The address to transfer ownership to.\r"
        }
      }
    }
  },
  "userdoc": {
    "methods": {}
  }
}