{
  "contractName": "UserHelper",
  "abi": [
    {
      "constant": false,
      "inputs": [
        {
          "name": "_imageUrl",
          "type": "string"
        },
        {
          "name": "_location",
          "type": "string"
        },
        {
          "name": "_price",
          "type": "uint32"
        }
      ],
      "name": "addHouse",
      "outputs": [],
      "payable": false,
      "stateMutability": "nonpayable",
      "type": "function",
      "signature": "0x0210197b"
    },
    {
      "constant": true,
      "inputs": [
        {
          "name": "",
          "type": "uint256"
        }
      ],
      "name": "userToOwner",
      "outputs": [
        {
          "name": "",
          "type": "address"
        }
      ],
      "payable": false,
      "stateMutability": "view",
      "type": "function",
      "signature": "0x0d7b081c"
    },
    {
      "constant": true,
      "inputs": [
        {
          "name": "",
          "type": "uint256"
        }
      ],
      "name": "houseToRenter",
      "outputs": [
        {
          "name": "",
          "type": "address"
        }
      ],
      "payable": false,
      "stateMutability": "view",
      "type": "function",
      "signature": "0x247d125b"
    },
    {
      "constant": true,
      "inputs": [
        {
          "name": "",
          "type": "uint256"
        }
      ],
      "name": "users",
      "outputs": [
        {
          "name": "userName",
          "type": "string"
        },
        {
          "name": "phoneNumber",
          "type": "string"
        }
      ],
      "payable": false,
      "stateMutability": "view",
      "type": "function",
      "signature": "0x365b98b2"
    },
    {
      "constant": false,
      "inputs": [
        {
          "name": "_name",
          "type": "string"
        },
        {
          "name": "_phoneNumber",
          "type": "string"
        }
      ],
      "name": "createUser",
      "outputs": [],
      "payable": false,
      "stateMutability": "nonpayable",
      "type": "function",
      "signature": "0x87b162b5"
    },
    {
      "constant": true,
      "inputs": [],
      "name": "owner",
      "outputs": [
        {
          "name": "",
          "type": "address"
        }
      ],
      "payable": false,
      "stateMutability": "view",
      "type": "function",
      "signature": "0x8da5cb5b"
    },
    {
      "constant": true,
      "inputs": [
        {
          "name": "",
          "type": "uint256"
        }
      ],
      "name": "isHouseRented",
      "outputs": [
        {
          "name": "",
          "type": "uint256"
        }
      ],
      "payable": false,
      "stateMutability": "view",
      "type": "function",
      "signature": "0x9fd77ddd"
    },
    {
      "constant": true,
      "inputs": [
        {
          "name": "",
          "type": "uint256"
        }
      ],
      "name": "houses",
      "outputs": [
        {
          "name": "imageUrl",
          "type": "string"
        },
        {
          "name": "location",
          "type": "string"
        },
        {
          "name": "price",
          "type": "uint32"
        }
      ],
      "payable": false,
      "stateMutability": "view",
      "type": "function",
      "signature": "0xaeda852f"
    },
    {
      "constant": true,
      "inputs": [
        {
          "name": "",
          "type": "uint256"
        }
      ],
      "name": "houseToOwner",
      "outputs": [
        {
          "name": "",
          "type": "address"
        }
      ],
      "payable": false,
      "stateMutability": "view",
      "type": "function",
      "signature": "0xcf9ce6fc"
    },
    {
      "constant": false,
      "inputs": [
        {
          "name": "newOwner",
          "type": "address"
        }
      ],
      "name": "transferOwnership",
      "outputs": [],
      "payable": false,
      "stateMutability": "nonpayable",
      "type": "function",
      "signature": "0xf2fde38b"
    },
    {
      "anonymous": false,
      "inputs": [
        {
          "indexed": false,
          "name": "userId",
          "type": "uint256"
        },
        {
          "indexed": false,
          "name": "name",
          "type": "string"
        },
        {
          "indexed": false,
          "name": "phoneNumber",
          "type": "string"
        }
      ],
      "name": "NewUser",
      "type": "event",
      "signature": "0x64979422818c70217f49521f1bd79aa0196f6b00dd0d566bdbbfed150eb753ea"
    },
    {
      "anonymous": false,
      "inputs": [
        {
          "indexed": false,
          "name": "houseId",
          "type": "uint256"
        },
        {
          "indexed": false,
          "name": "imageUrl",
          "type": "string"
        },
        {
          "indexed": false,
          "name": "location",
          "type": "string"
        },
        {
          "indexed": false,
          "name": "price",
          "type": "uint32"
        }
      ],
      "name": "NewHouse",
      "type": "event",
      "signature": "0x23f5df6bd013d90f4c3d2e70d3981ab38f72361a1da0d852c2128b18085632af"
    },
    {
      "anonymous": false,
      "inputs": [
        {
          "indexed": true,
          "name": "previousOwner",
          "type": "address"
        },
        {
          "indexed": true,
          "name": "newOwner",
          "type": "address"
        }
      ],
      "name": "OwnershipTransferred",
      "type": "event",
      "signature": "0x8be0079c531659141344cd1fd0a4f28419497f9722a3daafe3b4186f6b6457e0"
    },
    {
      "constant": false,
      "inputs": [
        {
          "name": "_userId",
          "type": "uint256"
        },
        {
          "name": "_userName",
          "type": "string"
        }
      ],
      "name": "changeUserName",
      "outputs": [],
      "payable": false,
      "stateMutability": "nonpayable",
      "type": "function",
      "signature": "0x3300cd19"
    },
    {
      "constant": false,
      "inputs": [
        {
          "name": "_userId",
          "type": "uint256"
        },
        {
          "name": "_phoneNumber",
          "type": "string"
        }
      ],
      "name": "changeUserPhoneNumber",
      "outputs": [],
      "payable": false,
      "stateMutability": "nonpayable",
      "type": "function",
      "signature": "0xe46e52c8"
    },
    {
      "constant": false,
      "inputs": [
        {
          "name": "_houseId",
          "type": "uint256"
        },
        {
          "name": "_imageUrl",
          "type": "string"
        }
      ],
      "name": "changeHouseImageUrl",
      "outputs": [],
      "payable": false,
      "stateMutability": "nonpayable",
      "type": "function",
      "signature": "0x6f90eba7"
    },
    {
      "constant": false,
      "inputs": [
        {
          "name": "_houseId",
          "type": "uint256"
        },
        {
          "name": "_location",
          "type": "string"
        }
      ],
      "name": "changeHouseLocation",
      "outputs": [],
      "payable": false,
      "stateMutability": "nonpayable",
      "type": "function",
      "signature": "0xc0ef54e1"
    },
    {
      "constant": false,
      "inputs": [
        {
          "name": "_houseId",
          "type": "uint256"
        },
        {
          "name": "_price",
          "type": "uint32"
        }
      ],
      "name": "changeHousePrice",
      "outputs": [],
      "payable": false,
      "stateMutability": "nonpayable",
      "type": "function",
      "signature": "0x92db5bc0"
    },
    {
      "constant": true,
      "inputs": [
        {
          "name": "_owner",
          "type": "address"
        }
      ],
      "name": "getUserByOwner",
      "outputs": [
        {
          "name": "",
          "type": "uint256"
        }
      ],
      "payable": false,
      "stateMutability": "view",
      "type": "function",
      "signature": "0xdaac7252"
    },
    {
      "constant": true,
      "inputs": [
        {
          "name": "_owner",
          "type": "address"
        }
      ],
      "name": "getHousesByOwner",
      "outputs": [
        {
          "name": "",
          "type": "uint256[]"
        }
      ],
      "payable": false,
      "stateMutability": "view",
      "type": "function",
      "signature": "0x75e6c709"
    },
    {
      "constant": true,
      "inputs": [
        {
          "name": "_renter",
          "type": "address"
        }
      ],
      "name": "getHousesByRenter",
      "outputs": [
        {
          "name": "",
          "type": "uint256[]"
        }
      ],
      "payable": false,
      "stateMutability": "view",
      "type": "function",
      "signature": "0xb2059207"
    }
  ],
  "bytecode": "0x6080604052336000806101000a81548173ffffffffffffffffffffffffffffffffffffffff021916908373ffffffffffffffffffffffffffffffffffffffff160217905550620186a0600a60003373ffffffffffffffffffffffffffffffffffffffff1673ffffffffffffffffffffffffffffffffffffffff16815260200190815260200160002081905550611d7b8061009a6000396000f3fe6080604052600436106100fc576000357c0100000000000000000000000000000000000000000000000000000000900463ffffffff1680630210197b146101015780630d7b081c146101ec578063247d125b146102675780633300cd19146102e2578063365b98b2146103725780636f90eba71461049257806375e6c7091461052257806387b162b5146105c85780638da5cb5b146106a357806392db5bc0146106fa5780639fd77ddd14610745578063aeda852f14610794578063b2059207146108c7578063c0ef54e11461096d578063cf9ce6fc146109fd578063daac725214610a78578063e46e52c814610add578063f2fde38b14610b6d575b600080fd5b34801561010d57600080fd5b506101ea6004803603606081101561012457600080fd5b810190808035906020019064010000000081111561014157600080fd5b82018360208201111561015357600080fd5b8035906020019184600183028401116401000000008311171561017557600080fd5b90919293919293908035906020019064010000000081111561019657600080fd5b8201836020820111156101a857600080fd5b803590602001918460018302840111640100000000831117156101ca57600080fd5b9091929391929390803563ffffffff169060200190929190505050610bbe565b005b3480156101f857600080fd5b506102256004803603602081101561020f57600080fd5b8101908080359060200190929190505050610e74565b604051808273ffffffffffffffffffffffffffffffffffffffff1673ffffffffffffffffffffffffffffffffffffffff16815260200191505060405180910390f35b34801561027357600080fd5b506102a06004803603602081101561028a57600080fd5b8101908080359060200190929190505050610ea7565b604051808273ffffffffffffffffffffffffffffffffffffffff1673ffffffffffffffffffffffffffffffffffffffff16815260200191505060405180910390f35b3480156102ee57600080fd5b506103706004803603604081101561030557600080fd5b81019080803590602001909291908035906020019064010000000081111561032c57600080fd5b82018360208201111561033e57600080fd5b8035906020019184600183028401116401000000008311171561036057600080fd5b9091929391929390505050610eda565b005b34801561037e57600080fd5b506103ab6004803603602081101561039557600080fd5b8101908080359060200190929190505050610f7e565b604051808060200180602001838103835285818151815260200191508051906020019080838360005b838110156103ef5780820151818401526020810190506103d4565b50505050905090810190601f16801561041c5780820380516001836020036101000a031916815260200191505b50838103825284818151815260200191508051906020019080838360005b8381101561045557808201518184015260208101905061043a565b50505050905090810190601f1680156104825780820380516001836020036101000a031916815260200191505b5094505050505060405180910390f35b34801561049e57600080fd5b50610520600480360360408110156104b557600080fd5b8101908080359060200190929190803590602001906401000000008111156104dc57600080fd5b8201836020820111156104ee57600080fd5b8035906020019184600183028401116401000000008311171561051057600080fd5b90919293919293905050506110e1565b005b34801561052e57600080fd5b506105716004803603602081101561054557600080fd5b81019080803573ffffffffffffffffffffffffffffffffffffffff169060200190929190505050611185565b6040518080602001828103825283818151815260200191508051906020019060200280838360005b838110156105b4578082015181840152602081019050610599565b505050509050019250505060405180910390f35b3480156105d457600080fd5b506106a1600480360360408110156105eb57600080fd5b810190808035906020019064010000000081111561060857600080fd5b82018360208201111561061a57600080fd5b8035906020019184600183028401116401000000008311171561063c57600080fd5b90919293919293908035906020019064010000000081111561065d57600080fd5b82018360208201111561066f57600080fd5b8035906020019184600183028401116401000000008311171561069157600080fd5b90919293919293905050506112d5565b005b3480156106af57600080fd5b506106b8611528565b604051808273ffffffffffffffffffffffffffffffffffffffff1673ffffffffffffffffffffffffffffffffffffffff16815260200191505060405180910390f35b34801561070657600080fd5b506107436004803603604081101561071d57600080fd5b8101908080359060200190929190803563ffffffff16906020019092919050505061154d565b005b34801561075157600080fd5b5061077e6004803603602081101561076857600080fd5b81019080803590602001909291905050506115ff565b6040518082815260200191505060405180910390f35b3480156107a057600080fd5b506107cd600480360360208110156107b757600080fd5b8101908080359060200190929190505050611617565b6040518080602001806020018463ffffffff1663ffffffff168152602001838103835286818151815260200191508051906020019080838360005b83811015610823578082015181840152602081019050610808565b50505050905090810190601f1680156108505780820380516001836020036101000a031916815260200191505b50838103825285818151815260200191508051906020019080838360005b8381101561088957808201518184015260208101905061086e565b50505050905090810190601f1680156108b65780820380516001836020036101000a031916815260200191505b509550505050505060405180910390f35b3480156108d357600080fd5b50610916600480360360208110156108ea57600080fd5b81019080803573ffffffffffffffffffffffffffffffffffffffff169060200190929190505050611790565b6040518080602001828103825283818151815260200191508051906020019060200280838360005b8381101561095957808201518184015260208101905061093e565b505050509050019250505060405180910390f35b34801561097957600080fd5b506109fb6004803603604081101561099057600080fd5b8101908080359060200190929190803590602001906401000000008111156109b757600080fd5b8201836020820111156109c957600080fd5b803590602001918460018302840111640100000000831117156109eb57600080fd5b90919293919293905050506118c1565b005b348015610a0957600080fd5b50610a3660048036036020811015610a2057600080fd5b8101908080359060200190929190505050611965565b604051808273ffffffffffffffffffffffffffffffffffffffff1673ffffffffffffffffffffffffffffffffffffffff16815260200191505060405180910390f35b348015610a8457600080fd5b50610ac760048036036020811015610a9b57600080fd5b81019080803573ffffffffffffffffffffffffffffffffffffffff169060200190929190505050611998565b6040518082815260200191505060405180910390f35b348015610ae957600080fd5b50610b6b60048036036040811015610b0057600080fd5b810190808035906020019092919080359060200190640100000000811115610b2757600080fd5b820183602082011115610b3957600080fd5b80359060200191846001830284011164010000000083111715610b5b57600080fd5b9091929391929390505050611a31565b005b348015610b7957600080fd5b50610bbc60048036036020811015610b9057600080fd5b81019080803573ffffffffffffffffffffffffffffffffffffffff169060200190929190505050611ad5565b005b60006001600260606040519081016040528089898080601f016020809104026020016040519081016040528093929190818152602001838380828437600081840152601f19601f82011690508083019250505050505050815260200187878080601f016020809104026020016040519081016040528093929190818152602001838380828437600081840152601f19601f8201169050808301925050505050505081526020018563ffffffff16815250908060018154018082558091505090600182039060005260206000209060030201600090919290919091506000820151816000019080519060200190610cb5929190611c2a565b506020820151816001019080519060200190610cd2929190611c2a565b5060408201518160020160006101000a81548163ffffffff021916908363ffffffff1602179055505050039050336004600083815260200190815260200160002060006101000a81548173ffffffffffffffffffffffffffffffffffffffff021916908373ffffffffffffffffffffffffffffffffffffffff160217905550600860003373ffffffffffffffffffffffffffffffffffffffff1673ffffffffffffffffffffffffffffffffffffffff16815260200190815260200160002060008154809291906001019190505550600060066000838152602001908152602001600020819055507f23f5df6bd013d90f4c3d2e70d3981ab38f72361a1da0d852c2128b18085632af8187878787876040518087815260200180602001806020018463ffffffff1663ffffffff1681526020018381038352888882818152602001925080828437600081840152601f19601f8201169050808301925050508381038252868682818152602001925080828437600081840152601f19601f8201169050808301925050509850505050505050505060405180910390a1505050505050565b60036020528060005260406000206000915054906101000a900473ffffffffffffffffffffffffffffffffffffffff1681565b60056020528060005260406000206000915054906101000a900473ffffffffffffffffffffffffffffffffffffffff1681565b826003600082815260200190815260200160002060009054906101000a900473ffffffffffffffffffffffffffffffffffffffff1673ffffffffffffffffffffffffffffffffffffffff163373ffffffffffffffffffffffffffffffffffffffff16141515610f4857600080fd5b8282600186815481101515610f5957fe5b90600052602060002090600202016000019190610f77929190611caa565b5050505050565b600181815481101515610f8d57fe5b9060005260206000209060020201600091509050806000018054600181600116156101000203166002900480601f0160208091040260200160405190810160405280929190818152602001828054600181600116156101000203166002900480156110395780601f1061100e57610100808354040283529160200191611039565b820191906000526020600020905b81548152906001019060200180831161101c57829003601f168201915b505050505090806001018054600181600116156101000203166002900480601f0160208091040260200160405190810160405280929190818152602001828054600181600116156101000203166002900480156110d75780601f106110ac576101008083540402835291602001916110d7565b820191906000526020600020905b8154815290600101906020018083116110ba57829003601f168201915b5050505050905082565b6004600084815260200190815260200160002060009054906101000a900473ffffffffffffffffffffffffffffffffffffffff168073ffffffffffffffffffffffffffffffffffffffff163373ffffffffffffffffffffffffffffffffffffffff1614151561114f57600080fd5b828260028681548110151561116057fe5b9060005260206000209060030201600001919061117e929190611caa565b5050505050565b606080600860008473ffffffffffffffffffffffffffffffffffffffff1673ffffffffffffffffffffffffffffffffffffffff168152602001908152602001600020546040519080825280602002602001820160405280156111f65781602001602082028038833980820191505090505b509050600080905060008090505b6002805490508110156112ca578473ffffffffffffffffffffffffffffffffffffffff166004600083815260200190815260200160002060009054906101000a900473ffffffffffffffffffffffffffffffffffffffff1673ffffffffffffffffffffffffffffffffffffffff16148015611292575060006006600083815260200190815260200160002054145b156112bd578083838151811015156112a657fe5b906020019060200201818152505081806001019250505b8080600101915050611204565b508192505050919050565b6000600180604080519081016040528088888080601f016020809104026020016040519081016040528093929190818152602001838380828437600081840152601f19601f82011690508083019250505050505050815260200186868080601f016020809104026020016040519081016040528093929190818152602001838380828437600081840152601f19601f820116905080830192505050505050508152509080600181540180825580915050906001820390600052602060002090600202016000909192909190915060008201518160000190805190602001906113be929190611c2a565b5060208201518160010190805190602001906113db929190611c2a565b505050039050336003600083815260200190815260200160002060006101000a81548173ffffffffffffffffffffffffffffffffffffffff021916908373ffffffffffffffffffffffffffffffffffffffff160217905550600760003373ffffffffffffffffffffffffffffffffffffffff1673ffffffffffffffffffffffffffffffffffffffff168152602001908152602001600020600081548092919060010191905055507f64979422818c70217f49521f1bd79aa0196f6b00dd0d566bdbbfed150eb753ea81868686866040518086815260200180602001806020018381038352878782818152602001925080828437600081840152601f19601f8201169050808301925050508381038252858582818152602001925080828437600081840152601f19601f82011690508083019250505097505050505050505060405180910390a15050505050565b6000809054906101000a900473ffffffffffffffffffffffffffffffffffffffff1681565b6004600083815260200190815260200160002060009054906101000a900473ffffffffffffffffffffffffffffffffffffffff168073ffffffffffffffffffffffffffffffffffffffff163373ffffffffffffffffffffffffffffffffffffffff161415156115bb57600080fd5b816002848154811015156115cb57fe5b906000526020600020906003020160020160006101000a81548163ffffffff021916908363ffffffff160217905550505050565b60066020528060005260406000206000915090505481565b60028181548110151561162657fe5b9060005260206000209060030201600091509050806000018054600181600116156101000203166002900480601f0160208091040260200160405190810160405280929190818152602001828054600181600116156101000203166002900480156116d25780601f106116a7576101008083540402835291602001916116d2565b820191906000526020600020905b8154815290600101906020018083116116b557829003601f168201915b505050505090806001018054600181600116156101000203166002900480601f0160208091040260200160405190810160405280929190818152602001828054600181600116156101000203166002900480156117705780601f1061174557610100808354040283529160200191611770565b820191906000526020600020905b81548152906001019060200180831161175357829003601f168201915b5050505050908060020160009054906101000a900463ffffffff16905083565b606080600960008473ffffffffffffffffffffffffffffffffffffffff1673ffffffffffffffffffffffffffffffffffffffff168152602001908152602001600020546040519080825280602002602001820160405280156118015781602001602082028038833980820191505090505b509050600080905060008090505b6002805490508110156118b6578473ffffffffffffffffffffffffffffffffffffffff166005600083815260200190815260200160002060009054906101000a900473ffffffffffffffffffffffffffffffffffffffff1673ffffffffffffffffffffffffffffffffffffffff1614156118a95780838381518110151561189257fe5b906020019060200201818152505081806001019250505b808060010191505061180f565b508192505050919050565b6004600084815260200190815260200160002060009054906101000a900473ffffffffffffffffffffffffffffffffffffffff168073ffffffffffffffffffffffffffffffffffffffff163373ffffffffffffffffffffffffffffffffffffffff1614151561192f57600080fd5b828260028681548110151561194057fe5b9060005260206000209060030201600101919061195e929190611caa565b5050505050565b60046020528060005260406000206000915054906101000a900473ffffffffffffffffffffffffffffffffffffffff1681565b600080600090505b600180549050811015611a2a578273ffffffffffffffffffffffffffffffffffffffff166003600083815260200190815260200160002060009054906101000a900473ffffffffffffffffffffffffffffffffffffffff1673ffffffffffffffffffffffffffffffffffffffff161415611a1d5780915050611a2c565b80806001019150506119a0565b505b919050565b826003600082815260200190815260200160002060009054906101000a900473ffffffffffffffffffffffffffffffffffffffff1673ffffffffffffffffffffffffffffffffffffffff163373ffffffffffffffffffffffffffffffffffffffff16141515611a9f57600080fd5b8282600186815481101515611ab057fe5b90600052602060002090600202016001019190611ace929190611caa565b5050505050565b6000809054906101000a900473ffffffffffffffffffffffffffffffffffffffff1673ffffffffffffffffffffffffffffffffffffffff163373ffffffffffffffffffffffffffffffffffffffff16141515611b3057600080fd5b600073ffffffffffffffffffffffffffffffffffffffff168173ffffffffffffffffffffffffffffffffffffffff1614151515611b6c57600080fd5b8073ffffffffffffffffffffffffffffffffffffffff166000809054906101000a900473ffffffffffffffffffffffffffffffffffffffff1673ffffffffffffffffffffffffffffffffffffffff167f8be0079c531659141344cd1fd0a4f28419497f9722a3daafe3b4186f6b6457e060405160405180910390a3806000806101000a81548173ffffffffffffffffffffffffffffffffffffffff021916908373ffffffffffffffffffffffffffffffffffffffff16021790555050565b828054600181600116156101000203166002900490600052602060002090601f016020900481019282601f10611c6b57805160ff1916838001178555611c99565b82800160010185558215611c99579182015b82811115611c98578251825591602001919060010190611c7d565b5b509050611ca69190611d2a565b5090565b828054600181600116156101000203166002900490600052602060002090601f016020900481019282601f10611ceb57803560ff1916838001178555611d19565b82800160010185558215611d19579182015b82811115611d18578235825591602001919060010190611cfd565b5b509050611d269190611d2a565b5090565b611d4c91905b80821115611d48576000816000905550600101611d30565b5090565b9056fea165627a7a72305820448301f722f2b7c912be3716546b361c68c9b291e66629540b40124f6d8e19e70029",
  "source": "pragma solidity ^0.5.0;\r\n\r\nimport \"./userFactory.sol\";\r\n\r\ncontract UserHelper is UserFactory {\r\n\r\n  modifier onlyOwnerOf(uint _id) {\r\n    require(msg.sender == userToOwner[_id]);\r\n    _;\r\n  }\r\n\r\n  modifier onlyOwnerOfAddress(address _address) {\r\n    require(msg.sender == _address);\r\n    _;\r\n  }\r\n\r\n  /*\r\n    withdraw the money\r\n\r\n      function withdraw() external onlyOwner {\r\n        owner.transfer(this.balance);\r\n      }\r\n\r\n  */\r\n\r\n  /*\r\n    change user's information(userName & phoneNumber)\r\n    userId needed\r\n  */\r\n  function changeUserName(uint _userId, string calldata _userName) external onlyOwnerOf(_userId){\r\n    users[_userId].userName = _userName;\r\n  }\r\n\r\n  function changeUserPhoneNumber(uint _userId, string calldata _phoneNumber) external onlyOwnerOf(_userId){\r\n    users[_userId].phoneNumber = _phoneNumber;\r\n  }\r\n\r\n  /*\r\n    change houses' information(imageUrl & location & price)\r\n    houseId needed\r\n  */\r\n  function changeHouseImageUrl(uint _houseId, string calldata _imageUrl) external onlyOwnerOfAddress(houseToOwner[_houseId]){\r\n    houses[_houseId].imageUrl = _imageUrl;\r\n  }\r\n\r\n  function changeHouseLocation(uint _houseId, string calldata _location) external onlyOwnerOfAddress(houseToOwner[_houseId]){\r\n    houses[_houseId].location = _location;\r\n  }\r\n\r\n  function changeHousePrice(uint _houseId, uint32 _price) external onlyOwnerOfAddress(houseToOwner[_houseId]){\r\n    houses[_houseId].price = _price;\r\n  }\r\n\r\n  /*\r\n    get user(id) by owner address\r\n  */\r\n  function getUserByOwner(address _owner) external view returns(uint) {\r\n    for (uint i = 0; i < users.length; i++) {\r\n      if (userToOwner[i] == _owner) {\r\n        return i;\r\n      }\r\n    }\r\n  }\r\n\r\n  /*\r\n    get houses(id) owner has\r\n    (get houseid array by owner address)\r\n  */\r\n  function getHousesByOwner(address _owner) external view returns(uint[] memory) {\r\n    uint[] memory result = new uint[](ownerHouseCount[_owner]);\r\n    uint counter = 0;\r\n    for (uint i = 0; i < houses.length; i++) {\r\n      if (houseToOwner[i] == _owner && isHouseRented[i] == 0) {\r\n        result[counter] = i;\r\n        counter++;\r\n      }\r\n    }\r\n    return result;\r\n  }\r\n\r\n  /*\r\n    get houses(id) renter rents\r\n    (get houseid array by renter address)\r\n  */\r\n  function getHousesByRenter(address _renter) external view returns(uint[] memory) {\r\n    uint[] memory result = new uint[](renterHouseCount[_renter]);\r\n    uint counter = 0;\r\n    for (uint i = 0; i < houses.length; i++) {\r\n      if (houseToRenter[i] == _renter) {\r\n        result[counter] = i;\r\n        counter++;\r\n      }\r\n    }\r\n    return result;\r\n  }\r\n\r\n}\r\n",
  "sourcePath": "D:\\react-box-master\\react-box-master\\contracts\\userHelper.sol",
  "compiler": {
    "name": "solc",
    "version": "0.5.0+commit.1d4f565a.Emscripten.clang"
  },
  "schemaVersion": "3.0.2",
  "updatedAt": "2019-03-10T05:37:23.715Z",
  "devdoc": {
    "methods": {
      "transferOwnership(address)": {
        "details": "Allows the current owner to transfer control of the contract to a newOwner.\r",
        "params": {
          "newOwner": "The address to transfer ownership to.\r"
        }
      }
    }
  },
  "userdoc": {
    "methods": {}
  }
}