{
  "contractName": "UserFactory",
  "abi": [
    {
      "constant": true,
      "inputs": [
        {
          "name": "",
          "type": "uint256"
        }
      ],
      "name": "userToOwner",
      "outputs": [
        {
          "name": "",
          "type": "address"
        }
      ],
      "payable": false,
      "stateMutability": "view",
      "type": "function",
      "signature": "0x0d7b081c"
    },
    {
      "constant": true,
      "inputs": [
        {
          "name": "",
          "type": "uint256"
        }
      ],
      "name": "houseToRenter",
      "outputs": [
        {
          "name": "",
          "type": "address"
        }
      ],
      "payable": false,
      "stateMutability": "view",
      "type": "function",
      "signature": "0x247d125b"
    },
    {
      "constant": true,
      "inputs": [
        {
          "name": "",
          "type": "uint256"
        }
      ],
      "name": "users",
      "outputs": [
        {
          "name": "userName",
          "type": "string"
        },
        {
          "name": "phoneNumber",
          "type": "string"
        }
      ],
      "payable": false,
      "stateMutability": "view",
      "type": "function",
      "signature": "0x365b98b2"
    },
    {
      "constant": true,
      "inputs": [],
      "name": "owner",
      "outputs": [
        {
          "name": "",
          "type": "address"
        }
      ],
      "payable": false,
      "stateMutability": "view",
      "type": "function",
      "signature": "0x8da5cb5b"
    },
    {
      "constant": true,
      "inputs": [
        {
          "name": "",
          "type": "uint256"
        }
      ],
      "name": "isHouseRented",
      "outputs": [
        {
          "name": "",
          "type": "uint256"
        }
      ],
      "payable": false,
      "stateMutability": "view",
      "type": "function",
      "signature": "0x9fd77ddd"
    },
    {
      "constant": true,
      "inputs": [
        {
          "name": "",
          "type": "uint256"
        }
      ],
      "name": "houses",
      "outputs": [
        {
          "name": "imageUrl",
          "type": "string"
        },
        {
          "name": "location",
          "type": "string"
        },
        {
          "name": "price",
          "type": "uint32"
        }
      ],
      "payable": false,
      "stateMutability": "view",
      "type": "function",
      "signature": "0xaeda852f"
    },
    {
      "constant": true,
      "inputs": [
        {
          "name": "",
          "type": "uint256"
        }
      ],
      "name": "houseToOwner",
      "outputs": [
        {
          "name": "",
          "type": "address"
        }
      ],
      "payable": false,
      "stateMutability": "view",
      "type": "function",
      "signature": "0xcf9ce6fc"
    },
    {
      "constant": false,
      "inputs": [
        {
          "name": "newOwner",
          "type": "address"
        }
      ],
      "name": "transferOwnership",
      "outputs": [],
      "payable": false,
      "stateMutability": "nonpayable",
      "type": "function",
      "signature": "0xf2fde38b"
    },
    {
      "inputs": [],
      "payable": false,
      "stateMutability": "nonpayable",
      "type": "constructor",
      "signature": "constructor"
    },
    {
      "anonymous": false,
      "inputs": [
        {
          "indexed": false,
          "name": "userId",
          "type": "uint256"
        },
        {
          "indexed": false,
          "name": "name",
          "type": "string"
        },
        {
          "indexed": false,
          "name": "phoneNumber",
          "type": "string"
        }
      ],
      "name": "NewUser",
      "type": "event",
      "signature": "0x64979422818c70217f49521f1bd79aa0196f6b00dd0d566bdbbfed150eb753ea"
    },
    {
      "anonymous": false,
      "inputs": [
        {
          "indexed": false,
          "name": "houseId",
          "type": "uint256"
        },
        {
          "indexed": false,
          "name": "imageUrl",
          "type": "string"
        },
        {
          "indexed": false,
          "name": "location",
          "type": "string"
        },
        {
          "indexed": false,
          "name": "price",
          "type": "uint32"
        }
      ],
      "name": "NewHouse",
      "type": "event",
      "signature": "0x23f5df6bd013d90f4c3d2e70d3981ab38f72361a1da0d852c2128b18085632af"
    },
    {
      "anonymous": false,
      "inputs": [
        {
          "indexed": true,
          "name": "previousOwner",
          "type": "address"
        },
        {
          "indexed": true,
          "name": "newOwner",
          "type": "address"
        }
      ],
      "name": "OwnershipTransferred",
      "type": "event",
      "signature": "0x8be0079c531659141344cd1fd0a4f28419497f9722a3daafe3b4186f6b6457e0"
    },
    {
      "constant": false,
      "inputs": [
        {
          "name": "_name",
          "type": "string"
        },
        {
          "name": "_phoneNumber",
          "type": "string"
        }
      ],
      "name": "createUser",
      "outputs": [],
      "payable": false,
      "stateMutability": "nonpayable",
      "type": "function",
      "signature": "0x87b162b5"
    },
    {
      "constant": false,
      "inputs": [
        {
          "name": "_imageUrl",
          "type": "string"
        },
        {
          "name": "_location",
          "type": "string"
        },
        {
          "name": "_price",
          "type": "uint32"
        }
      ],
      "name": "addHouse",
      "outputs": [],
      "payable": false,
      "stateMutability": "nonpayable",
      "type": "function",
      "signature": "0x0210197b"
    }
  ],
  "bytecode": "0x608060405234801561001057600080fd5b50336000806101000a81548173ffffffffffffffffffffffffffffffffffffffff021916908373ffffffffffffffffffffffffffffffffffffffff160217905550620186a0600a60003373ffffffffffffffffffffffffffffffffffffffff1673ffffffffffffffffffffffffffffffffffffffff1681526020019081526020016000208190555061120b806100a76000396000f3fe6080604052600436106100a4576000357c0100000000000000000000000000000000000000000000000000000000900463ffffffff1680630210197b146100a95780630d7b081c14610194578063247d125b1461020f578063365b98b21461028a57806387b162b5146103aa5780638da5cb5b146104855780639fd77ddd146104dc578063aeda852f1461052b578063cf9ce6fc1461065e578063f2fde38b146106d9575b600080fd5b3480156100b557600080fd5b50610192600480360360608110156100cc57600080fd5b81019080803590602001906401000000008111156100e957600080fd5b8201836020820111156100fb57600080fd5b8035906020019184600183028401116401000000008311171561011d57600080fd5b90919293919293908035906020019064010000000081111561013e57600080fd5b82018360208201111561015057600080fd5b8035906020019184600183028401116401000000008311171561017257600080fd5b9091929391929390803563ffffffff16906020019092919050505061072a565b005b3480156101a057600080fd5b506101cd600480360360208110156101b757600080fd5b81019080803590602001909291905050506109e0565b604051808273ffffffffffffffffffffffffffffffffffffffff1673ffffffffffffffffffffffffffffffffffffffff16815260200191505060405180910390f35b34801561021b57600080fd5b506102486004803603602081101561023257600080fd5b8101908080359060200190929190505050610a13565b604051808273ffffffffffffffffffffffffffffffffffffffff1673ffffffffffffffffffffffffffffffffffffffff16815260200191505060405180910390f35b34801561029657600080fd5b506102c3600480360360208110156102ad57600080fd5b8101908080359060200190929190505050610a46565b604051808060200180602001838103835285818151815260200191508051906020019080838360005b838110156103075780820151818401526020810190506102ec565b50505050905090810190601f1680156103345780820380516001836020036101000a031916815260200191505b50838103825284818151815260200191508051906020019080838360005b8381101561036d578082015181840152602081019050610352565b50505050905090810190601f16801561039a5780820380516001836020036101000a031916815260200191505b5094505050505060405180910390f35b3480156103b657600080fd5b50610483600480360360408110156103cd57600080fd5b81019080803590602001906401000000008111156103ea57600080fd5b8201836020820111156103fc57600080fd5b8035906020019184600183028401116401000000008311171561041e57600080fd5b90919293919293908035906020019064010000000081111561043f57600080fd5b82018360208201111561045157600080fd5b8035906020019184600183028401116401000000008311171561047357600080fd5b9091929391929390505050610ba9565b005b34801561049157600080fd5b5061049a610dfc565b604051808273ffffffffffffffffffffffffffffffffffffffff1673ffffffffffffffffffffffffffffffffffffffff16815260200191505060405180910390f35b3480156104e857600080fd5b50610515600480360360208110156104ff57600080fd5b8101908080359060200190929190505050610e21565b6040518082815260200191505060405180910390f35b34801561053757600080fd5b506105646004803603602081101561054e57600080fd5b8101908080359060200190929190505050610e39565b6040518080602001806020018463ffffffff1663ffffffff168152602001838103835286818151815260200191508051906020019080838360005b838110156105ba57808201518184015260208101905061059f565b50505050905090810190601f1680156105e75780820380516001836020036101000a031916815260200191505b50838103825285818151815260200191508051906020019080838360005b83811015610620578082015181840152602081019050610605565b50505050905090810190601f16801561064d5780820380516001836020036101000a031916815260200191505b509550505050505060405180910390f35b34801561066a57600080fd5b506106976004803603602081101561068157600080fd5b8101908080359060200190929190505050610fb2565b604051808273ffffffffffffffffffffffffffffffffffffffff1673ffffffffffffffffffffffffffffffffffffffff16815260200191505060405180910390f35b3480156106e557600080fd5b50610728600480360360208110156106fc57600080fd5b81019080803573ffffffffffffffffffffffffffffffffffffffff169060200190929190505050610fe5565b005b60006001600260606040519081016040528089898080601f016020809104026020016040519081016040528093929190818152602001838380828437600081840152601f19601f82011690508083019250505050505050815260200187878080601f016020809104026020016040519081016040528093929190818152602001838380828437600081840152601f19601f8201169050808301925050505050505081526020018563ffffffff1681525090806001815401808255809150509060018203906000526020600020906003020160009091929091909150600082015181600001908051906020019061082192919061113a565b50602082015181600101908051906020019061083e92919061113a565b5060408201518160020160006101000a81548163ffffffff021916908363ffffffff1602179055505050039050336004600083815260200190815260200160002060006101000a81548173ffffffffffffffffffffffffffffffffffffffff021916908373ffffffffffffffffffffffffffffffffffffffff160217905550600860003373ffffffffffffffffffffffffffffffffffffffff1673ffffffffffffffffffffffffffffffffffffffff16815260200190815260200160002060008154809291906001019190505550600060066000838152602001908152602001600020819055507f23f5df6bd013d90f4c3d2e70d3981ab38f72361a1da0d852c2128b18085632af8187878787876040518087815260200180602001806020018463ffffffff1663ffffffff1681526020018381038352888882818152602001925080828437600081840152601f19601f8201169050808301925050508381038252868682818152602001925080828437600081840152601f19601f8201169050808301925050509850505050505050505060405180910390a1505050505050565b60036020528060005260406000206000915054906101000a900473ffffffffffffffffffffffffffffffffffffffff1681565b60056020528060005260406000206000915054906101000a900473ffffffffffffffffffffffffffffffffffffffff1681565b600181815481101515610a5557fe5b9060005260206000209060020201600091509050806000018054600181600116156101000203166002900480601f016020809104026020016040519081016040528092919081815260200182805460018160011615610100020316600290048015610b015780601f10610ad657610100808354040283529160200191610b01565b820191906000526020600020905b815481529060010190602001808311610ae457829003601f168201915b505050505090806001018054600181600116156101000203166002900480601f016020809104026020016040519081016040528092919081815260200182805460018160011615610100020316600290048015610b9f5780601f10610b7457610100808354040283529160200191610b9f565b820191906000526020600020905b815481529060010190602001808311610b8257829003601f168201915b5050505050905082565b6000600180604080519081016040528088888080601f016020809104026020016040519081016040528093929190818152602001838380828437600081840152601f19601f82011690508083019250505050505050815260200186868080601f016020809104026020016040519081016040528093929190818152602001838380828437600081840152601f19601f82011690508083019250505050505050815250908060018154018082558091505090600182039060005260206000209060020201600090919290919091506000820151816000019080519060200190610c9292919061113a565b506020820151816001019080519060200190610caf92919061113a565b505050039050336003600083815260200190815260200160002060006101000a81548173ffffffffffffffffffffffffffffffffffffffff021916908373ffffffffffffffffffffffffffffffffffffffff160217905550600760003373ffffffffffffffffffffffffffffffffffffffff1673ffffffffffffffffffffffffffffffffffffffff168152602001908152602001600020600081548092919060010191905055507f64979422818c70217f49521f1bd79aa0196f6b00dd0d566bdbbfed150eb753ea81868686866040518086815260200180602001806020018381038352878782818152602001925080828437600081840152601f19601f8201169050808301925050508381038252858582818152602001925080828437600081840152601f19601f82011690508083019250505097505050505050505060405180910390a15050505050565b6000809054906101000a900473ffffffffffffffffffffffffffffffffffffffff1681565b60066020528060005260406000206000915090505481565b600281815481101515610e4857fe5b9060005260206000209060030201600091509050806000018054600181600116156101000203166002900480601f016020809104026020016040519081016040528092919081815260200182805460018160011615610100020316600290048015610ef45780601f10610ec957610100808354040283529160200191610ef4565b820191906000526020600020905b815481529060010190602001808311610ed757829003601f168201915b505050505090806001018054600181600116156101000203166002900480601f016020809104026020016040519081016040528092919081815260200182805460018160011615610100020316600290048015610f925780601f10610f6757610100808354040283529160200191610f92565b820191906000526020600020905b815481529060010190602001808311610f7557829003601f168201915b5050505050908060020160009054906101000a900463ffffffff16905083565b60046020528060005260406000206000915054906101000a900473ffffffffffffffffffffffffffffffffffffffff1681565b6000809054906101000a900473ffffffffffffffffffffffffffffffffffffffff1673ffffffffffffffffffffffffffffffffffffffff163373ffffffffffffffffffffffffffffffffffffffff1614151561104057600080fd5b600073ffffffffffffffffffffffffffffffffffffffff168173ffffffffffffffffffffffffffffffffffffffff161415151561107c57600080fd5b8073ffffffffffffffffffffffffffffffffffffffff166000809054906101000a900473ffffffffffffffffffffffffffffffffffffffff1673ffffffffffffffffffffffffffffffffffffffff167f8be0079c531659141344cd1fd0a4f28419497f9722a3daafe3b4186f6b6457e060405160405180910390a3806000806101000a81548173ffffffffffffffffffffffffffffffffffffffff021916908373ffffffffffffffffffffffffffffffffffffffff16021790555050565b828054600181600116156101000203166002900490600052602060002090601f016020900481019282601f1061117b57805160ff19168380011785556111a9565b828001600101855582156111a9579182015b828111156111a857825182559160200191906001019061118d565b5b5090506111b691906111ba565b5090565b6111dc91905b808211156111d85760008160009055506001016111c0565b5090565b9056fea165627a7a723058201d13fcef2f236ac8691ee042653ccd97eb977fa53b963faced6bce6a06ea70dd0029",
  "source": "pragma solidity ^0.5.0;\r\n\r\nimport \"./ownable.sol\";\r\n\r\ncontract UserFactory is Ownable {\r\n\r\n  event NewUser(uint userId, string name, string phoneNumber);\r\n  event NewHouse(uint houseId, string imageUrl, string location, uint32 price);\r\n\r\n  struct User {\r\n    string userName;\r\n    string phoneNumber;\r\n  }\r\n\r\n  struct House {\r\n    string imageUrl;\r\n    string location;\r\n    uint32 price;\r\n  }\r\n\r\n  User[] public users;\r\n  House[] public houses;\r\n\r\n  // user -> owner\r\n  mapping (uint => address) public userToOwner;\r\n  // house -> owner\r\n  mapping (uint => address) public houseToOwner;\r\n  // house -> renter(can be null)\r\n  mapping (uint => address) public houseToRenter;\r\n  // 0/1: the house is rented / not rented\r\n  mapping (uint => uint) public isHouseRented;\r\n  // owner -> the amount of users owner has\r\n  mapping (address => uint) ownerUserCount;\r\n  // owner -> the amount of houses owner has\r\n  mapping (address => uint) ownerHouseCount;\r\n  // renter -> the amount of houses renter rents\r\n  mapping (address => uint) renterHouseCount;\r\n  // owner -> the amount of money owner has\r\n  mapping (address => uint) ownerMoneyCount;\r\n\r\n  constructor() public {\r\n    ownerMoneyCount[msg.sender] = 100000;\r\n  }\r\n  /*\r\n    Set information for new user\r\n  */\r\n  function createUser(string calldata _name, string calldata _phoneNumber) external {\r\n    //require(ownerUserCount[msg.sender] == 0);\r\n    uint id = users.push(User(_name, _phoneNumber)) - 1;\r\n    userToOwner[id] = msg.sender;\r\n    ownerUserCount[msg.sender]++;\r\n    emit NewUser(id, _name, _phoneNumber);\r\n }\r\n\r\n  /*\r\n    msg.sender add a new house\r\n  */\r\n  function addHouse(string calldata _imageUrl, string calldata _location, uint32 _price) external {\r\n    uint id = houses.push(House(_imageUrl, _location, _price)) - 1;\r\n    houseToOwner[id] = msg.sender;\r\n    ownerHouseCount[msg.sender]++;\r\n    isHouseRented[id] = 0;\r\n    emit NewHouse(id, _imageUrl, _location, _price);\r\n  }\r\n\r\n}\r\n",
  "sourcePath": "D:\\react-box-master\\react-box-master\\contracts\\userFactory.sol",
  "compiler": {
    "name": "solc",
    "version": "0.5.0+commit.1d4f565a.Emscripten.clang"
  },
  "schemaVersion": "3.0.2",
  "updatedAt": "2019-03-10T05:37:23.712Z",
  "devdoc": {
    "methods": {
      "transferOwnership(address)": {
        "details": "Allows the current owner to transfer control of the contract to a newOwner.\r",
        "params": {
          "newOwner": "The address to transfer ownership to.\r"
        }
      }
    }
  },
  "userdoc": {
    "methods": {}
  }
}